:020000040800F2
:10000000E8E00124A5030008475A000897510008BA
:10001000435A0008050A000845790008000000005E
:10002000000000000000000000000000E5020008E1
:10003000090A00080000000041030008EF6C0008F6
:10004000C3030008C3030008C3030008C303000878
:10005000C3030008C3030008C3030008C303000868
:10006000C3030008C3030008C3030008C303000858
:10007000C3030008C3030008C3030008C303000848
:10008000C3030008C3030008C3030008C303000838
:10009000C3030008C3030008C3030008C303000828
:1000A000C3030008D16E0008C3030008C30300089F
:1000B000C3030008C3030008C3030008C303000808
:1000C000C3030008C3030008C3030008C3030008F8
:1000D000C3030008C3030008C3030008C3030008E8
:1000E000C3030008C303000800000000C3030008A6
:1000F000C3030008C3030008C3030008C3030008C8
:10010000C3030008C3030008C3030008C3030008B7
:10011000C3030008C3030008C3030008C3030008A7
:10012000C3030008C3030008C3030008C303000897
:10013000C3030008C3030008C3030008C303000887
:1001400000000000000000000000000000000000AF
:10015000C3030008C3030008C3030008C303000867
:10016000C3030008C3030008C3030008C303000857
:10017000C3030008C3030008C30300080000000015
:10018000C3030008C3030008C3030008C303000837
:10019000D1690008C3030008C3030008C3030008B3
:1001A000C3030008C3030008C303000800000000E5
:1001B000C3030008C3030008C3030008C303000807
:1001C000C3030008C3030008000000000000000093
:1001D0000000000000000000C30300080000000051
:1001E000000000000000000000000000000000000F
:1001F0000000000000000000C3030008C303000863
:10020000C3030008C303000800000000C303000884
:10021000C3030008C3030008C3030008C3030008A6
:10022000C303000800000000C30300080000000032
:10023000C3030008C303000800000000C303000854
:10024000C3030008C3030008C3030008C303000876
:10025000C3030008C3030008C3030008C303000866
:10026000C3030008C3030008C3030008C303000856
:10027000C3030008C3030008C30300080000000014
:10028000C3030008C3030008C3030008C303000836
:1002900000000000C3030008C303000800000000C2
:1002A00000000000C3030008C3030008C3030008E4
:1002B000C3030008C3030008C3030008C303000806
:1002C000C3030008C3030008C3030008DFF810D00D
:1002D00000F0ECFA004800471DF20208AFF300807E
:1002E000E8E001242C4B19680868B0E8F04F80F36F
:1002F0000988BFF36F8F4FF0000080F311887047BB
:100300000000000008480068006880F308884FF08B
:10031000000080F3148862B661B6BFF34F8FBFF35D
:100320006F8F00DF00BF00BF08ED00E0DFF80C00BA
:10033000016841F470010160704700BF88ED00E082
:10034000EFF30980BFF36F8F134B1A681EF0100F85
:1003500008BF20ED108A20E9F04F106009B44FF07B
:10036000500080F31188BFF34F8FBFF36F8F36F0CB
:10037000BBFA4FF0000080F3118809BC19680868C7
:10038000B0E8F04F1EF0100F08BFB0EC108A80F3F9
:100390000988BFF36F8F704714000024EFF30580C6
:1003A00070470000074880470748804707480047D4
:1003B000FEE7FEE7FEE7FEE7FEE7FEE7FEE7FEE715
:1003C000FEE7FEE7110A0008C56D0008CD0200082F
:1003D0002DE9F05F0546002092469B46884606467A
:1003E000814640241BE0284641464746224600F00D
:1003F00095F853465A46C01A914110D311461846F3
:10040000224600F07CF82D1A67EB01084F46224681
:100410000120002100F073F817EB00094E41201E67
:10042000A4F10104DFDC484631462A464346BDE8D4
:10043000F09F10B5431A934209D28318881803E03D
:1004400010F8011D03F8011D521EF9D210BD40EA3B
:1004500001039B0703D009E008C9121F08C0042A42
:10046000FAD203E011F8013B00F8013B521EF9D229
:1004700010BDD2B201E000F8012B491EFBD270473B
:100480000022F6E710B513460A4604461946FFF760
:10049000F0FF204610BD421C10F8011B0029FBD1C3
:1004A000801A704710B5002200E0521C835C8C5CFF
:1004B000A34201D1002BF8D1D8B2E1B2401A10BD4D
:1004C000034611F8012B00F8012B002AF9D1184638
:1004D000704730B50B46014600202022012409E078
:1004E00021FA02F59D4205D303FA02F5491B04FAED
:1004F00002F52844151EA2F10102F1DC30BD202ACC
:1005000004DB203A00FA02F1002070479140C2F16A
:10051000200320FA03F3194390407047202A04DB9C
:10052000203A21FA02F00021704721FA02F3D0406C
:10053000C2F1200291400843194670472DE9FE4F51
:10054000804681EA0300C00F0C46009021F0004174
:1005500023F00045B8EB0200A94105D240462146F0
:1005600090461C460B46024623F00040104347D0FD
:10057000270DC7F30A00C3F30A510290401A0190F5
:1005800040286BDAC3F3130040F4801B00989246B6
:1005900020B10023D2EB030A63EB0B0B0198594601
:1005A000C0F140025046FFF7AAFF06460D465046EE
:1005B0005946019A00F08CF910EB080061410024C3
:1005C00087EA115284EAE7731A4340D0009A62B373
:1005D000019A012A4FEA075215DC001B61EB020168
:1005E0004FF0004202EA0752CDE90042001C41F5FB
:1005F000801132462B4600F08CF903B0BDE8F08F35
:1006000040462146F9E7001B61EB0201001C41F561
:10061000801300185B412018A2F5001747EB030177
:1006200040EAD570B6196D4111E06D084FEA360603
:1006300045EAC0754FEA0752001B61EB0201001C3E
:1006400041F5801149084FEA300000195141324606
:100650002B4603B0BDE8F04F00F04CB900980122E2
:1006600040000023D0EB020263EBE07300982146C8
:100670004FEAE074B8EB000061EB0401E9E783F0B6
:1006800000435BE781F0004158E72DE9FE4F81EA26
:10069000030404F0004421F0004100944FF0000BEB
:1006A00023F0004350EA01045ED052EA03045BD019
:1006B000C3F30A54C1F30A552C44A4F2F334019451
:1006C000A0FB0254C1F3130141F48011C3F31303DF
:1006D00043F4801301FB024400FB034E840A970A93
:1006E00044EA815447EA8357A4FB076802958D0AC0
:1006F00005FB07854FEA932C04FB0C542705029D4C
:100700004FEA065847EA1637B5EB08056EEB070CBB
:10071000870E920E47EA811742EA8312A7FB020175
:10072000B6EB0B0164EB00042B0D43EA0C335E18AF
:1007300044EB1C50DA465146E7FB0201C5F31304B3
:100740004FEA0B3343EA14534FEA0432019C43EA65
:100750000603A4F10C040294009CCDE900B400F05F
:10076000D8F803B0BDE8F08F00200146F9E72DE985
:10077000F04D81EA030404F0004B21F000451446DB
:100780004FF0000A23F0004150EA050220D054EA5D
:1007900001021DD0C5F30A570246C5F31303C1F386
:1007A0001300C1F30A5640F4801543F48013A7EBFD
:1007B0000608101BD64608F2FD3873EB050002D37D
:1007C00008F1010801E092185B41B8F1000F03DA6B
:1007D00000200146BDE8F08D00204FF48011064650
:1007E00084460EE0171B73EB050705D3121B63EB62
:1007F000050306434CEA010C49084FEA3000921801
:100800005B4150EA0107EDD152EA030012D082EABF
:10081000040083EA0501084305D0101BAB4106D252
:100820000122002306E000224FF0004302E06FF0B7
:10083000010253101AEB06004CEB085110EB0A00B2
:1008400041EB0B01BDE8F04D00F054B8C1F30A5282
:10085000C1F3130140F2FF3341F480119A4202DAEE
:1008600000200146704740F233439A42A2F23342DD
:1008700002DC5242FFF752BEFFF741BE30B5041E04
:1008800071F1000404DB4FF00044404264EB0101CD
:10089000141E73F1000405DB1C464FF00043524266
:1008A00063EB0403994208BF904230BD064C074DEC
:1008B00006E0E06840F0010394E807009847103430
:1008C000AC42F6D3FFF706FDC8780508F8780508AE
:1008D000202A06DBCB17203A41FA02F043EAE07304
:1008E00006E041FA02F3D040C2F1200291400843F1
:1008F0001946704710B5141E73F1000408DA401C45
:1009000041F1000192185B411A4301D120F001002E
:1009100010BD2DE9F04D92469B4611B1B1FA81F21E
:1009200002E0B0FA80F220329046FFF7E8FD04467C
:100930000F4640EA0A0041EA0B0153465A46084373
:1009400013D0114653EA010019D0C8F140025046B5
:10095000FFF7E4FD05460E46504659464246FFF76E
:10096000CEFD084305D0012004E020463946BDE80D
:10097000F08D0020054346EAE0762C4337430A9881
:100980006305E40AA0EB08000022FD0A44EA47548C
:100990000A3002D500200146E9E701051019694136
:1009A000DDE9084500196941BDE8F04DA2E770B5E1
:1009B0008C1810F8015B15F0070301D110F8013B0A
:1009C0002A1106D110F8012B03E010F8016B01F891
:1009D000016B5B1EF9D12B0705D40023521E0DD4E9
:1009E00001F8013BFAE710F8013BCB1A921C03E037
:1009F00013F8015B01F8015B521EF9D5A142D8D36F
:100A0000002070BD00BFFEE7704772B600BFFEE772
:100A10000748006840F002000549086000BF04482C
:100A20000838006800F400500028F8D07047000033
:100A30000C48025870B504460CB9012070BD94F8FA
:100A40003500022803D0802060650120F6E7DC49EC
:100A50002068884249D0DA4918312068884244D059
:100A6000D7493031206888423FD0D5494831206885
:100A700088423AD0D24960312068884235D0D04986
:100A800078312068884230D0CD4990312068884242
:100A90002BD0CB49A8312068884226D0C94920688C
:100AA000884222D0C7491831206888421DD0C549E4
:100AB00030312068884218D0C249483120688842C5
:100AC00013D0C0496031206888420ED0BD497831CA
:100AD0002068884209D0BB4990312068884204D000
:100AE000B849A8312068884201D1012000E00020E7
:100AF000F0B3042084F83500B149206888424BD017
:100B0000AF4918312068884246D0AD49303120685D
:100B1000884241D0AA494831206888423CD0A8493F
:100B200060312068884237D0A549783120688842F2
:100B300032D0A3499031206888422DD0A049A831F5
:100B40002068884228D09F492068884224D09D4947
:100B50001831206888421FD09A4930312068884275
:100B60001AD0984948312068884215D0954900E04C
:100B700020E06031206888420ED0924978312068A8
:100B8000884209D08F4990312068884204D08D492D
:100B9000A8312068884206D12068006820F0010052
:100BA0002168086009E12068006820F001002168E0
:100BB000086002E12068006820F00E0021680860EB
:100BC0007F492068884249D07D4918312068884291
:100BD00044D07B493031206888423FD07849483141
:100BE000206888423AD0764960312068884235D002
:100BF000734978312068884230D07149903120683B
:100C000088422BD06E49A8312068884226D06D4991
:100C10002068884222D06B491831206888421DD054
:100C2000684930312068884218D0664948312068C8
:100C3000884213D063496031206888420ED06149F0
:100C400078312068884209D05E4990312068884216
:100C500004D05C49A8312068884206D12068006829
:100C600020F001002168086005E02068006820F09D
:100C700001002168086052492068884270D05049BC
:100C80001831206888426BD04D4930312068884245
:100C900066D04B4948312068884261D0484960316C
:100CA000206888425CD0464978312068884257D015
:100CB000434990312068884252D04149A831206888
:100CC00088424DD03F492068884249D03D4918317B
:100CD0002068884244D03B493031206888423FD068
:100CE00038494831206888423AD036496031206816
:100CF000884235D0334978312068884230D0314934
:100D00009031206888422BD02E49A8312068884233
:100D100026D02D492068884222D02B4914312068E2
:100D200088421DD0284928312068884218D0264999
:100D30003C312068884213D02349503120688842D2
:100D40000ED0214964312068884209D01E4978318B
:100D50002068884204D01C498C312068884201D127
:100D6000012000E00020D8B1206E006820F48070DF
:100D7000216E0860A56D94F85C0000F01F01012051
:100D800088406860D4E919104860E06E40B1E06EB8
:100D9000006820F48070E16E0860D4E91C1048609F
:100DA000012084F8350000BF002084F8340000BF23
:100DB000206D10B12046216D884700203EE60000DE
:100DC00010000240100402400854025870B5044656
:100DD00000F00EF906462546681C10B1044800785C
:100DE000054400BF00F004F9801BA842FAD370BD8F
:100DF00008000024F8B502460B4600216D4DD2E0F4
:100E000001278F401E6806EA0704002C72D01E7965
:100E100006F00306012E04D01E7906F00306022E0A
:100E200013D190684F000326BE40B0434F00DE68E8
:100E3000BE4030439060506801268E40B0431E791A
:100E4000C6F300168E40304350601E7906F003064C
:100E5000032E09D0D0684F000326BE40B0434F0098
:100E60009E68BE403043D0601E7906F00306022E15
:100E700013D1CF0802F1200656F827004E07F70ECF
:100E80000F26BE40B0434F07FF0E1E69BE403043E1
:100E9000CF0802F1200646F8270010684F0003260D
:100EA000BE40B0431E7906F003064F00BE403043FB
:100EB00010605E6806F44036002E73D000BF3E4ED0
:100EC000366846F002063C4F3E603E46366806F005
:100ED0000206009600BF00BF384E8F0856F8270064
:100EE0008E07370F0F26BE40B043354EB24202D1B7
:100EF000002629E056E0334EB24201D1012623E01C
:100F0000314EB24201D102261EE0304EB24201D132
:100F1000032619E02E4EB24201D1042614E02D4ED4
:100F2000B24201D105260FE02B4EB24201D1062676
:100F30000AE02A4EB24201D1072605E0284EB2420D
:100F400001D1092600E00A268F073F0FBE4030433B
:100F50001A4E8F0846F827004FF0B0463068A0437D
:100F60005E6806F4801606B120434FF0B04630604C
:100F70007068A0435E6806F4001606B120434FF087
:100F8000B04670606868A0435E6806F4003606B13B
:100F9000204368602868A0435E6806F4803606B186
:100FA00020432860491C1E68CE40002E7FF428AFE5
:100FB000F8BD000080000058F444025808040058AE
:100FC000000002580004025800080258000C0258A1
:100FD000001002580014025800180258001C025851
:100FE000002402580AB1816101E00B04836170475B
:100FF00001480068704700000000002403480068B2
:10100000034909780844014908607047000000243A
:101010000800002410B5032000F044F902F02AF97A
:1010200010490968C1F303210F4A515C01F01F0107
:1010300020FA01F40B48006800F00F001146085C2C
:1010400000F01F0024FA00F0084908600848046016
:101050000F2000F00FF808B1012010BD00F0B8F823
:101060000020FAE7184402582079030810000024F1
:101070000C00002470B58AB00446102C0AD200225D
:101080002146192000F0D0F8192000F0B9F81948CD
:10109000046002E001200AB070BD00BF164800687D
:1010A00040F00100144908600846006800F00100A3
:1010B000009000BF00BF01A902A802F05BF802F097
:1010C000C7F845000D48B5FBF0F0461E0C480D4929
:1010D000086040F2E7310B48C160466000210161C1
:1010E000816003F02AFD18B9064803F05FFDD2E7DE
:1010F0000120D0E704000024F044025840420F00D1
:101100000000014098E000244178154A116014491C
:101110000831096821F00101114A08321160121FDB
:1011200041681160017B0907C27A41EA0261827A53
:1011300041EAC241427B41EA8241827B41EA42412B
:10114000C27B41EA0241427A41EA0221027A41EA43
:10115000420102781143024A0832116070470000D0
:1011600098ED00E000BF00BF00BFBFF35F8F00BF7E
:1011700000BF00BF0548006820F4803003490860C4
:1011800000200249703108607047000024ED00E043
:1011900040F001010D4A11600C497039096841F4B1
:1011A00080310A4A703A116000BF00BF00BFBFF330
:1011B0004F8F00BF00BF00BF00BF00BF00BFBFF325
:1011C0006F8F00BF00BF00BF7047000094ED00E0CC
:1011D00008B500BF0948006840F0020007490860F0
:1011E0000846006800F00200009000BF00BF002227
:1011F0000F21901E00F018F808BD0000F4440258BA
:101200000146084600280DDB00BF00BF00F01F03A9
:1012100001229A4043099B0003F1E023C3F8002117
:1012200000BF00BF00BF70472DE9F05F80460D464C
:10123000164606F099FB074639462A46334601F022
:101240000700C0F1070ABAF1040F02D94FF0040AEF
:1012500001E0C0F1070AD14600F1040ABAF1070F14
:1012600002D24FF0000A01E0A0F1030AD4464FF089
:10127000010A0AFA09FAAAF1010A0AEA020A0AFAB2
:101280000CFA4FF0010B0BFA0CFBABF1010B0BEA64
:10129000030B4AEA0B042146404606F06DFBBDE80D
:1012A000F09F000000BF00F00702064B19684FF6E0
:1012B000FF031940044B0B4343EA0221014B196021
:1012C00000BF70470CED00E00000FA0570B5044661
:1012D00015480068C0F3800048B91348006800F062
:1012E0000700A04201D0012070BD0020FCE70E489D
:1012F000006820F0070020430B490860FFF778FEE4
:10130000054607E0FFF774FE401BB0F57A7F01D970
:101310000120E9E7044808380068C0F3403000289D
:10132000F0D00020E0E700000C48025810B501F0B2
:1013300057FF05490968C1F30211044A515C01F0E5
:101340001F01C84010BD0000204402582079030846
:1013500070B50146844D2D6805F00303824D2D685C
:10136000C5F30510804D2D1D2D6805F001047E4D3F
:101370000C352D68C5F3CC0515FB04F501EE105AAC
:10138000B8EE411AF0EE410A00286FD023B1012BCC
:101390004ED0022B6BD16BE0734D283D2D68C5F309
:1013A00040153DB3704D283D2D68C5F3C1066F4D06
:1013B00025FA06F201EE102AF8EE411A01EE100AA3
:1013C000B8EE411A81EE812A9FED691AC0EE811AAA
:1013D000654D08352D68C5F3080501EE105AB8EEC5
:1013E000411A31EE811AF7EE001A31EE211A22EE7F
:1013F000010A1CE001EE100AB8EE411ADFED5D1A99
:1014000081EE812A9FED5A1AC0EE811A564D083599
:101410002D68C5F3080501EE105AB8EE411A31EEF9
:10142000811AF7EE001A31EE211A22EE010A5BE072
:1014300001EE100AB8EE411ADFED4F1A81EE812A53
:101440009FED4B1AC0EE811A474D08352D68C5F344
:10145000080501EE105AB8EE411A31EE811AF7EE86
:10146000001A31EE211A22EE010A3DE077E01DE07C
:1014700001EE100AB8EE411A9FED402AC2EE011AA1
:101480009FED3B1A80EE812A374D08352D68C5F354
:10149000080501EE105AB8EE411A32EE011AB7EE05
:1014A000002A31EE021A21EE810A1DE001EE100A37
:1014B000B8EE411ADFED2F1A81EE812A9FED2C1A2A
:1014C000C0EE811A284D08352D68C5F3080501EED8
:1014D000105AB8EE411A31EE811AF7EE001A31EEC9
:1014E000211A22EE010A00BF00BF1F4D08352D68EA
:1014F000C5F3462501EE105AB8EE411AF7EE001A70
:1015000031EE211AC0EE011ABCEEE11A81ED001A8B
:10151000154D08352D68C5F3064501EE105AB8EE95
:10152000411AF7EE001A31EE211AC0EE011ABCEE94
:10153000E11A81ED011A0C4D08352D68C5F30665D9
:1015400001EE105AB8EE411AF7EE001A31EE211AE8
:10155000C0EE011ABCEEE11A81ED021A03E000258B
:101560000D604D608D6070BD284402580090D0031E
:10157000000000460024744C0024744A20BCBE4B7A
:1015800070B50146844D2D6805F00303824D2D682A
:10159000C5F30530804D2D1D2D68C5F300147E4D1B
:1015A00014352D68C5F3CC0515FB04F501EE105A72
:1015B000B8EE411AF0EE410A00286FD023B1012B9A
:1015C0004ED0022B6BD16BE0734D283D2D68C5F3D7
:1015D00040153DB3704D283D2D68C5F3C1066F4DD4
:1015E00025FA06F201EE102AF8EE411A01EE100A71
:1015F000B8EE411A81EE812A9FED691AC0EE811A78
:10160000654D10352D68C5F3080501EE105AB8EE8A
:10161000411A31EE811AF7EE001A31EE211A22EE4C
:10162000010A1CE001EE100AB8EE411ADFED5D1A66
:1016300081EE812A9FED5A1AC0EE811A564D10355F
:101640002D68C5F3080501EE105AB8EE411A31EEC7
:10165000811AF7EE001A31EE211A22EE010A5BE040
:1016600001EE100AB8EE411ADFED4F1A81EE812A21
:101670009FED4B1AC0EE811A474D10352D68C5F30A
:10168000080501EE105AB8EE411A31EE811AF7EE54
:10169000001A31EE211A22EE010A3DE077E01DE04A
:1016A00001EE100AB8EE411A9FED402AC2EE011A6F
:1016B0009FED3B1A80EE812A374D10352D68C5F31A
:1016C000080501EE105AB8EE411A32EE011AB7EED3
:1016D000002A31EE021A21EE810A1DE001EE100A05
:1016E000B8EE411ADFED301A81EE812A9FED2C1AF7
:1016F000C0EE811A284D10352D68C5F3080501EE9E
:10170000105AB8EE411A31EE811AF7EE001A31EE96
:10171000211A22EE010A00BF00BF1F4D10352D68AF
:10172000C5F3462501EE105AB8EE411AF7EE001A3D
:1017300031EE211AC0EE011ABCEEE11A81ED001A59
:10174000154D10352D68C5F3064501EE105AB8EE5B
:10175000411AF7EE001A31EE211AC0EE011ABCEE62
:10176000E11A81ED011A0C4D10352D68C5F306659F
:1017700001EE105AB8EE411AF7EE001A31EE211AB6
:10178000C0EE011ABCEEE11A81ED021A03E0002559
:101790000D604D608D6070BD284402580090D003EC
:1017A000000000460024744C0024744A20BCBE4B48
:1017B00070B50146844D2D6805F00303824D2D68F8
:1017C000C5F30550804D2D1D2D68C5F300247E4DB9
:1017D0001C352D68C5F3CC0515FB04F501EE105A38
:1017E000B8EE411AF0EE410A00286FD023B1012B68
:1017F0004ED0022B6BD16BE0734D283D2D68C5F3A5
:1018000040153DB3704D283D2D68C5F3C1066F4DA1
:1018100025FA06F201EE102AF8EE411A01EE100A3E
:10182000B8EE411A81EE812A9FED691AC0EE811A45
:10183000654D18352D68C5F3080501EE105AB8EE50
:10184000411A31EE811AF7EE001A31EE211A22EE1A
:10185000010A1CE001EE100AB8EE411ADFED5D1A34
:1018600081EE812A9FED5A1AC0EE811A564D183525
:101870002D68C5F3080501EE105AB8EE411A31EE95
:10188000811AF7EE001A31EE211A22EE010A5BE00E
:1018900001EE100AB8EE411ADFED4F1A81EE812AEF
:1018A0009FED4B1AC0EE811A474D18352D68C5F3D0
:1018B000080501EE105AB8EE411A31EE811AF7EE22
:1018C000001A31EE211A22EE010A3DE077E01DE018
:1018D00001EE100AB8EE411A9FED402AC2EE011A3D
:1018E0009FED3B1A80EE812A374D18352D68C5F3E0
:1018F000080501EE105AB8EE411A32EE011AB7EEA1
:10190000002A31EE021A21EE810A1DE001EE100AD2
:10191000B8EE411ADFED301A81EE812A9FED2C1AC4
:10192000C0EE811A284D18352D68C5F3080501EE63
:10193000105AB8EE411A31EE811AF7EE001A31EE64
:10194000211A22EE010A00BF00BF1F4D18352D6875
:10195000C5F3462501EE105AB8EE411AF7EE001A0B
:1019600031EE211AC0EE011ABCEEE11A81ED001A27
:10197000154D18352D68C5F3064501EE105AB8EE21
:10198000411AF7EE001A31EE211AC0EE011ABCEE30
:10199000E11A81ED011A0C4D18352D68C5F3066565
:1019A00001EE105AB8EE411AF7EE001A31EE211A84
:1019B000C0EE011ABCEEE11A81ED021A03E0002527
:1019C0000D604D608D6070BD284402580090D003BA
:1019D000000000460024744C0024744A20BCBE4B16
:1019E0002DE9F04389B006460F464FF4807186EA30
:1019F0000100384370D1F748006800F00709B9F1D9
:101A0000050F65D2DFE809F0031221623000F148CA
:101A10005038006800F00070B0F1007F04D106A8D3
:101A2000FFF796FC079C00E0002453E0E94850389B
:101A3000006800F00060B0F1006F04D103A8FFF768
:101A40009FFD039C00E0002444E0E2485038006819
:101A500000F00050B0F1005F04D16846FFF7A8FE27
:101A6000009C00E0002435E0DA48001F006800F028
:101A70004055D8485038006800F00400042809D1C7
:101A800045B9D44850380068C0F3C101D24820FAA3
:101A900001F41AE0CF485038006800F48070B0F5C7
:101AA000807F04D1B5F1805F01D1CC4C0DE0C948F5
:101AB0005038006800F40030B0F5003F04D1B5F1B3
:101AC000005F01D1C64C00E0002403E0C54C01E0FA
:101AD000002400BF4BE3FFE74FF4806186EA01007A
:101AE00038437BD1BB480830006800F46009B9F581
:101AF000800F2CD006DCB9F1000F0AD0B9F5001F19
:101B000069D115E0B9F5C00F63D0B9F5000F62D106
:101B10002CE0B0485038006800F00070B0F1007F51
:101B200004D106A8FFF714FC079C00E0002454E051
:101B3000A8485038006800F00060B0F1006F04D190
:101B400003A8FFF71DFD039C00E0002445E0A14829
:101B50005038006800F00050B0F1005F04D16846D2
:101B6000FFF726FE009C00E0002436E09948001FA5
:101B7000006800F0405597485038006800F00400B5
:101B8000042809D145B9934850380068C0F3C10111
:101B9000914820FA01F41BE08E485038006800F4A8
:101BA0008070B0F5807F04D1B5F1805F01D18B4C9E
:101BB0000EE088485038006800F40030B0F5003F6F
:101BC00005D1B5F1005F02D1854C01E006E00024AB
:101BD00003E0844C01E0002400BFC8E24FF4006140
:101BE00086EA010038437BD17A480830006800F06B
:101BF000E069B9F1007F2CD006DCB9F1000F0AD002
:101C0000B9F1807F69D115E0B9F1407F63D0B9F1B6
:101C1000806F62D12CE06F485038006800F000708F
:101C2000B0F1007F04D106A8FFF792FB079C00E00B
:101C3000002454E067485038006800F00060B0F1BC
:101C4000006F04D103A8FFF79BFC039C00E0002475
:101C500045E060485038006800F00050B0F1005F87
:101C600004D16846FFF7A4FD009C00E0002436E0A4
:101C70005848001F006800F040555648503800682A
:101C800000F00400042809D145B9524850380068D2
:101C9000C0F3C101504820FA01F41BE04D48503810
:101CA000006800F48070B0F5807F04D1B5F1805FEA
:101CB00001D14A4C0EE047485038006800F400302B
:101CC000B0F5003F05D1B5F1005F02D1444C01E011
:101CD00006E0002403E0434C01E0002400BF46E29C
:101CE0004FF4805186EA0100384372D139480068C8
:101CF00000F4E048B8F5005F2CD006DCB8F1000F26
:101D00000AD0B8F5805F75D115E0B8F5405F6FD0A7
:101D1000B8F5804F6ED12CE02E485038006800F0A6
:101D20000070B0F1007F04D106A8FFF711FB079CFB
:101D300000E0002460E027485038006800F00060B0
:101D4000B0F1006F04D103A8FFF71AFC039C00E078
:101D5000002451E01F485038006800F00050B0F1F6
:101D6000005F04D16846FFF723FD009C00E00024DB
:101D700042E01848001F006800F0405515485038F0
:101D8000006800F00400042809D145B91148503812
:101D90000068C0F3C101104820FA01F427E00D48A3
:101DA0005038006800F48070B0F5807F04D1B5F140
:101DB000805F01D1094C1AE006485038006800F4F1
:101DC0000030B0F5003F11D1B5F1005F0ED1044CE9
:101DD0000DE012E0504402580090D00300093D008D
:101DE00040787D010080BB0004E001E0002403E0B6
:101DF000E14C01E0002400BFB9E14FF4005186EA54
:101E00000100384367D1DD48006800F4E028B8F5E8
:101E1000403F33D009DCB8F1000F0DD0B8F5803F5A
:101E20000ED0B8F5003F53D119E0B8F5802F37D068
:101E3000B8F5A02F4CD13FE001F0F8F9044649E095
:101E4000CE485038006800F00060B0F1006F04D157
:101E500003A8FFF795FB049C00E000243AE0C74884
:101E60005038006800F00050B0F1005F04D16846BF
:101E7000FFF79EFC019C00E000242BE0BF48503897
:101E8000006800F00400042808D1BC4850380068FD
:101E9000C0F3C101BA4820FA01F400E0002419E0BF
:101EA000B6485038006800F48070B0F5807F01D1EA
:101EB000B44C00E000240DE0B0485038006800F455
:101EC0000030B0F5003F01D1AF4C00E0002401E04C
:101ED000002400BF4BE14FF4002186EA01003843A3
:101EE00061D1A6480830006800F44038B8F1000F0E
:101EF00006D0B8F5803F12D0B8F5003F50D11DE0B4
:101F00009E485038006800F00060B0F1006F04D1C6
:101F100003A8FFF735FB039C00E0002442E097484C
:101F20005038006800F00050B0F1005F04D16846FE
:101F3000FFF73EFC029C00E0002433E08F48001FC6
:101F4000006800F040558D485038006800F00400EB
:101F5000042809D145B9894850380068C0F3C10147
:101F6000874820FA01F41AE084485038006800F4E9
:101F70008070B0F5807F04D1B5F1805F01D1814CD4
:101F80000DE07E485038006800F40030B0F5003FA6
:101F900004D1B5F1005F01D17B4C00E0002401E0E9
:101FA000002400BFE3E04FF4803186EA01003843AB
:101FB0002CD17248001F006800F48038B8F1000F7F
:101FC00003D0B8F5803F1ED10EE06C485038006851
:101FD00000F00070B0F1007F04D106A8FFF7B8F957
:101FE000079C00E0002410E064485038006800F0CE
:101FF0000060B0F1006F04D103A8FFF7C1FA059C9F
:1020000000E0002401E0002400BFB0E04FF4804174
:1020100086EA0100384368D158480830006800F06B
:10202000E048B8F1405F33D009DCB8F1000F0DD0C3
:10203000B8F1805F0ED0B8F1005F53D119E0B8F16C
:10204000804F37D0B8F1A04F4CD13FE0FFF76EF989
:10205000044649E049485038006800F00060B0F19B
:10206000006F04D103A8FFF78BFA049C00E0002462
:102070003AE042485038006800F00050B0F1005F8C
:1020800004D16846FFF794FB019C00E000242BE09C
:102090003A485038006800F00400042808D1374856
:1020A00050380068C0F3C101354820FA01F400E05F
:1020B000002419E031485038006800F48070B0F511
:1020C000807F01D12F4C00E000240DE02B485038D8
:1020D000006800F40030B0F5003F01D12A4C00E068
:1020E000002401E0002400BF41E04FF4004186EAF3
:1020F000010038433AD12148006800F04058B8F157
:10210000000F06D0B8F1805F0FD0B8F1005F2AD180
:102110001AE01A485038006800F40030B0F5003F6B
:1021200001D1194C00E000241FE014485038006829
:1021300000F00070B0F1007F04D106A8FFF708F9A5
:10214000079C00E0002410E00C485038006800F0C4
:102150000060B0F1006F04D103A8FFF711FA049CEE
:1021600000E0002401E0002400BF00E0002420463D
:1021700009B0BDE8F08300000080BB005044025865
:102180000090D00300093D0040787D012DE9F04129
:1021900004460025A8464FF00062D4E90010114023
:1021A0000020134659404040014331D1606E48B190
:1021B000B0F5801F0DD0B0F5001F11D0B0F5401F55
:1021C00016D114E0FE48006840F40030FC49086075
:1021D00010E0022104F1080003F038FC054609E094
:1021E000022104F1280003F0E3FC054602E001E0CF
:1021F000012500BF00BF55B9F1482430006820F424
:102200004010616E0843EE492431086000E0A846A2
:102210004FF48072D4E90010114000201346594059
:10222000404001432ED1A06D05281BD2DFE800F00D
:10223000030A11181900E248006840F40030E04930
:10224000086011E0002104F1080003F0FFFB0546DF
:102250000AE0002104F1280003F0AAFC054603E08F
:1022600002E001E0012500BF00BF55B9D448243089
:10227000006820F00700A16D0843D14924310860AF
:1022800000E0A8464FF48062D4E90010114000201D
:1022900013465940404001433DD1D4F8A400B0F565
:1022A000C00F24D007DC68B1B0F5001F11D0B0F525
:1022B000800F1FD114E0B0F5000F19D0B0F5200F3A
:1022C00018D116E0BE48006840F40030BC490860F0
:1022D00012E0002104F1080003F0B8FB05460BE012
:1022E000002104F1280003F063FC054604E003E04C
:1022F00002E001E0012500BF00BF5DB9B0482C300D
:10230000006820F46000D4F8A4100843AC492C31D4
:10231000086000E0A8464FF40062D4E900011040D4
:10232000002113465840494008433DD1D4F8A80045
:10233000B0F1407F24D007DC68B1B0F1807F11D0CC
:10234000B0F1007F1FD114E0B0F1806F19D0B0F16F
:10235000A06F18D116E09A48006840F40030984900
:10236000086012E0002104F1080003F06FFB05464D
:102370000BE0002104F1280003F01AFC054604E0FC
:1023800003E002E001E0012500BF00BF5DB98C4819
:102390002C30006820F0E060D4F8A8100843884989
:1023A0002C31086000E0A8464FF00073D4E900101B
:1023B0001940002059404040014328D1E06CA8B1A9
:1023C000102804D0202809D0302810D10DE07C48F6
:1023D000006840F400307A4908600AE0022104F104
:1023E000080003F033FB054603E002E001E00125AD
:1023F00000BF00BF55B972482030006820F030009F
:10240000E16C08436E492031086000E0A8464FF4B3
:102410008053D4E900101940002059404040014346
:1024200037D1E06DB0F5005F1AD004DC50B1B0F5E3
:10243000805F1ED10DE0B0F5405F18D0B0F5804F41
:1024400017D115E05E48006840F400305C49086030
:1024500011E0002104F1080003F0F8FA05460AE053
:10246000002104F1280003F0A3FB054603E002E08D
:1024700001E0012500BF00BF55B951482430006874
:1024800020F4E040E16D08434D492431086000E04C
:10249000A8464FF40053D4E90010194000205940D9
:1024A0004040014335D1206EB0F5403F1ED007DCDF
:1024B00068B1B0F5803F0BD0B0F5003F19D10EE008
:1024C000B0F5802F13D0B0F5A02F12D110E012E09C
:1024D000012104F1080003F0B9FA05460BE00121DF
:1024E00004F1280003F064FB054604E003E002E089
:1024F00001E0012500BF00BF55B931482430006814
:1025000020F4E020216E08432D492431086000E0CA
:10251000A8464FF48042D4E9000110400021134640
:1025200058404940084337D1D4F8AC00B0F1405F7F
:102530001ED007DC68B1B0F1805F0BD0B0F1005F56
:1025400019D10EE0B0F1804F13D0B0F1A04F12D1ED
:1025500010E012E0012104F1080003F077FA0546CB
:102560000BE0012104F1280003F022FB054604E002
:1025700003E002E001E0012500BF00BF5DB91048A3
:102580002C30006820F0E040D4F8AC1008430C492F
:102590002C31086000E0A8464FF40043D4E9000164
:1025A000184000215840494008432AD1E06EB8B194
:1025B000B0F1805F06D0B0F1005F12D109E00000F9
:1025C0002C440258F948006840F40030F74908608C
:1025D00009E0012104F1080003F038FA054602E0A1
:1025E00001E0012500BF00BF55B9F0482430006864
:1025F00020F04050E16E0843EC492431086000E0CF
:10260000A8464FF08073D4E90010194000205940CB
:102610004040014328D1A06CA8B1012804D0022871
:1026200009D0032810D10DE0E048006840F40030E4
:10263000DE4908600AE0022104F1080003F006FA0E
:10264000054603E002E001E0012500BF00BF55B9E7
:10265000D6482030006820F00300A16C0843D3491D
:102660002031086000E0A8464FF48003D4E9001050
:10267000194000205940404001437DD1CC480068BA
:1026800040F48070CA490860FEF7B2FC064606E0D6
:10269000FEF7AEFC801B642801D9032505E0C44881
:1026A000006800F480700028F2D000BF85BBBF48EE
:1026B0004430006800F44070B4F8B01001F4407188
:1026C000884213D0B9484430006820F44077B748B6
:1026D0004430006840F48030B44944310860084612
:1026E000006820F48030086008460760D4F8B00025
:1026F000B0F5807F15D1FEF77BFC064609E0FEF7BA
:1027000077FC801B41F28831884202D9032507E01B
:1027100038E0A64844300068C0F340000028EED0FE
:1027200000BF55BB00BFB4F8B00000F44070B0F576
:10273000407F0ED19D481C38006820F47C519D4A92
:10274000D4F8B000104041EA101098491C390860D4
:1027500007E096481C38006820F47C5093491C39E7
:102760000860924844300068B4F8B010C1F30B011F
:1027700008438E49443101E005E001E0086002E0D1
:10278000A84600E0A8460122D4E90001104000213B
:10279000134658404940084330D1A06F18281AD03A
:1027A00005DC48B1082808D0102817D10CE02028F3
:1027B00012D0282812D110E012E0012104F1080003
:1027C00003F044F905460BE0012104F1280003F071
:1027D000EFF9054604E003E002E001E0012500BF57
:1027E00000BF55B971482830006820F03800A16F4B
:1027F00008436E492831086000E0A8460223D4E966
:1028000000101940002059404040014329D1606F19
:10281000062816D2DFE800F003040B12131412E0AE
:10282000012104F1080003F011F905460BE0012134
:1028300004F1280003F0BCF9054604E003E002E0DF
:1028400001E0012500BF00BF55B958482830006895
:1028500020F00700616F084354492831086000E008
:10286000A8460422D4E90010114000201346594024
:10287000404001432BD1D4F89000062816D2DFE85F
:1028800000F003040B12131412E0012104F10800FC
:1028900003F0DCF805460BE0012104F1280003F009
:1028A00087F9054604E003E002E001E0012500BFEE
:1028B00000BF5DB93D482C30006820F00700D4F817
:1028C0009010084339492C31086000E0A8462023C5
:1028D000D4E900011840002158404940084337D14D
:1028E000D4F88C00B0F1405F1ED007DC68B1B0F1C5
:1028F000805F0BD0B0F1005F19D10EE0B0F1804FD6
:1029000013D0B0F1A04F12D110E012E0002104F179
:10291000080003F09BF805460BE0022104F12800B3
:1029200003F046F9054604E003E002E001E001257A
:1029300000BF00BF5DB91D482830006820F0E040AE
:10294000D4F88C10084319492831086000E0A846E3
:102950004023D4E900101940002059404040014371
:102960003CD1D4F89800B0F5406F25D007DC68B1B1
:10297000B0F5806F0BD0B0F5006F20D10EE0B0F550
:10298000805F1AD0B0F5A05F19D117E019E00021DF
:1029900004F1080003F05AF8054612E0022104F1A0
:1029A000280003F005F905460BE000002C4402580E
:1029B00000480258FFFCFF0F03E002E001E00125A0
:1029C00000BF00BF4DB9FE48006820F4E050D4F8C5
:1029D00098100843FA49086000E0A8468023D4E92B
:1029E00000101940002059404040014335D1D4F82F
:1029F0009C00B0F5C04F1ED007DC68B1B0F5005F99
:102A00000BD0B0F5804F19D10EE0B0F5004F13D0C8
:102A1000B0F5204F12D110E012E0002104F10800BF
:102A200003F014F805460BE0022104F1280003F03E
:102A3000BFF8054604E003E002E001E0012500BF25
:102A400000BF4DB9DE48006820F46040D4F89C1007
:102A50000843DB49086000E0A8460823D4E90001E8
:102A60001840002158404940084317D1D4F880004D
:102A7000B0F5805F07D1022104F1280003F098F837
:102A800008B14FF00108CE48001F006820F4405004
:102A9000D4F880100843CA49091F08601023D4E9FC
:102AA00000011840002158404940084315D1D4F88E
:102AB0009400B0F5807F07D1022104F1280003F0D3
:102AC00077F808B14FF00108BD48006820F4407065
:102AD000D4F894100843BA4908604FF40023D4E9AD
:102AE00000011840002158404940084327D1D4F83C
:102AF000A00030B1B0F5803F0AD0B0F5003F0FD153
:102B00000DE0002104F1080002F0A0FF054609E0F5
:102B1000022104F1280003F04BF8054602E001E031
:102B2000012500BF00BF4DB9A548006820F4403022
:102B3000D4F8A0100843A249086000E0A8464FF46A
:102B40008023D4E90001184000215840494008433F
:102B50002DD1D4F88400B0F5801F06D0B0F5001F49
:102B60000CD0B0F5401F11D10FE095482C3800680B
:102B700040F4003092492C39086009E0012104F149
:102B8000280003F015F8054602E001E0012500BF2A
:102B900000BF5DB98A48001F006820F44010D4F8D7
:102BA000841008438649091F086000E0A8464FF4D6
:102BB0008032D4E9000110400021134658404940BA
:102BC000084325D1206D18B1B0F5803F10D108E041
:102BD0007B482C38006840F4003079492C39086073
:102BE00008E0022104F1080002F030FF054601E090
:102BF000012500BF00BF55B971480C38006820F4AA
:102C00008030216D08436E490C39086000E0A84609
:102C10004FF00053D4E900101940002059404040C3
:102C2000014307D1022104F1280002F0C1FF08B1DD
:102C30004FF001084FF40032D4E9000110400021A8
:102C4000134658404940084327D1E06FA0B1B0F582
:102C5000807F06D0B0F5007F0CD0B0F5407F0CD15E
:102C600009E057482C38006840F4003054492C39AA
:102C7000086004E003E002E001E0012500BF00BFBE
:102C800055B94F48001F006820F44070E16F0843B9
:102C90004B49091F086000E0A8464FF48012D4E9B0
:102CA000001011400020134659404040014309D113
:102CB00043480838006820F00040216F084340492D
:102CC000083908604FF40013D4E9000118400021CE
:102CD00058404940084309D139480838006820F075
:102CE0008070A16E08433649083908604FF0804370
:102CF000D4E900101940002059404040014311D14F
:102D000000BF2F484838006820F400402C4948395B
:102D1000086008460068D4F8B410084328494839C8
:102D2000086000BF4FF00042D4E9000110400021CC
:102D3000134658404940084309D121480C380068DF
:102D400020F04050616D08431D490C3908604FF474
:102D50000002D4E9001011400020134659404040C1
:102D600001430AD11648001F006820F44000D4F83F
:102D7000881008431249091F086001220021606879
:102D8000104049405040014306D104F1080002F0D0
:102D90005DFE054605B1A84602220021606810408C
:102DA00049405040014307D1012104F1080002F0DD
:102DB0004DFE054605B1A84604230020616801E0E8
:102DC000584402581940042240405140084307D15A
:102DD000022104F1080002F039FE054605B1A846BB
:102DE00008230020616819400822404051400843F0
:102DF00007D1002104F1280002F0DAFE054605B1F2
:102E0000A84610230020616819401022404051401C
:102E1000084307D1012104F1280002F0C9FE05464C
:102E200005B1A8462022002160681040494050406A
:102E3000014307D1022104F1280002F0B9FE054642
:102E400005B1A846B8F1000F02D10020BDE8F0811D
:102E50000120FBE72DE9F04104460D4614B901209D
:102E6000BDE8F081BD48006800F00F00A8420ED216
:102E7000BA48006820F00F002843B84908600846A7
:102E8000006800F00F00A84201D00120E8E7207898
:102E900000F0040004280ED1B1492069096801F04E
:102EA0007001884207D9AE48006820F0700021699F
:102EB0000843AB490860207800F00800082811D1C9
:102EC000A749091D6069096801F07001884209D9A4
:102ED000A348001D006820F0700061690843A04904
:102EE000091D0860207800F01000102811D19C49BD
:102EF000091DA069096801F4E061884209D9984870
:102F0000001D006820F4E060A16908439449091D90
:102F10000860207800F02000202811D19049083165
:102F2000E069096801F07001884209D98C480830CD
:102F3000006820F07000E1690843894908310860A1
:102F4000207800F0020002280ED18549E068096867
:102F500001F00F01884207D98148006820F00F0076
:102F6000E16808437E490860207800F001000028ED
:102F700050D07B48006820F47060A168084378490D
:102F800008606068022807D1754818380068C0F3E7
:102F90004040F8B9012063E76068032807D1704812
:102FA00018380068C0F34060A0B9012058E7606895
:102FB000012807D16A4818380068C0F3002048B9D2
:102FC00001204DE7664818380068C0F3800008B952
:102FD000012045E762480838006820F00700616872
:102FE00008435F4908390860FEF702F8064608E022
:102FF000FDF7FEFF801B41F28831884201D9032092
:103000002EE757480838006800F038006168B0EBD8
:10301000C10FEDD1207800F0020002280ED15049F6
:10302000E068096801F00F01884207D24C48006847
:1030300020F00F00E16808434949086047480068EC
:1030400000F00F00A8420ED94448006820F00F009D
:103050002843424908600846006800F00F00A84273
:1030600001D00120FCE6207800F0040004280ED1F5
:103070003B492069096801F07001884207D238484D
:10308000006820F070002169084335490860207805
:1030900000F00800082811D13149091D606909684C
:1030A00001F07001884209D22D48001D006820F00F
:1030B0007000616908432A49091D0860207800F002
:1030C0001000102811D12649091DA069096801F4D2
:1030D000E061884209D22248001D006820F4E060C7
:1030E000A16908431E49091D0860207800F02000EE
:1030F000202811D11A490831E069096801F07001EE
:10310000884209D216480830006820F07000E16952
:10311000084313490831086000F0ACF81049096809
:10312000C1F303210F4A515C01F01F0120FA01F79E
:103130000B48006800F00F001146085C00F01F000B
:1031400027FA00F008490860084807600848006846
:10315000FDF790FF8046404682E6000000200052C6
:103160001844025820790308100000240C000024A1
:10317000040000243F220260174A126802F007028E
:103180004260154A0832126802F470628260124A84
:103190000832126802F00F02C2600F4A0832126849
:1031A00002F0700202610C4A0C32126802F07002E6
:1031B0004261094A0C32126802F4E0628261064AF6
:1031C0001032126802F07002C261044A126802F002
:1031D0000F020A607047000010440258002000529D
:1031E00010B500F047F80D490968C1F303210C4AF6
:1031F000515C01F01F0120FA01F40848006800F05A
:103200000F001146085C00F01F0024FA00F0054989
:103210000860054804600846006810BD184402585C
:1032200020790308100000240C00002400B5FFF7EB
:10323000D7FF05490968C1F30211044A515C01F046
:103240001F01C84000BD00001C440258207903083B
:1032500000B5FFF7C5FF05490968C1F30221044A1B
:10326000515C01F01F01C84000BD00001C44025821
:1032700020790308F0B5824E366806F0380636B17C
:10328000082E15D0102E15D0182E7DD114E07C4EAE
:10329000103E3668C6F3401646B1794E103E366889
:1032A000C6F3C107774E26FA07F000E07548E5E05F
:1032B0007548E3E07548E1E0714E1836366806F06F
:1032C00003046F4E18363668C6F305116C4E1C3673
:1032D000366806F001056A4E24363668C6F3CC0619
:1032E00016FB05F601EE106AB8EE410A002971D00E
:1032F00024B1012C50D0022C6DD16DE0604E103EF7
:103300003668C6F340163EB35D4E103E3668C6F3CF
:10331000C1075C4E26FA07F301EE103AF8EE411AA7
:1033200001EE101AB8EE411A81EE812A9FED581A6B
:10333000C0EE011A524E20363668C6F3080601EE7A
:10334000106AB8EE411A31EE811AF7EE001A31EE2A
:10335000211A62EE010A1EE001EE101AB8EE411ABF
:10336000DFED4C1A81EE812A9FED491AC0EE011A59
:10337000434E20363668C6F3080601EE106AB8EEF2
:10338000411A31EE811A00E076E0F7EE001A31EED4
:10339000211A62EE010A5BE001EE101AB8EE411A42
:1033A0009FED3D2AC2EE011A9FED391A80EE012AE7
:1033B000334E20363668C6F3080601EE106AB8EEC2
:1033C000411A32EE011AB7EE002A31EE021A61EE0E
:1033D000810A3DE04EE01DE001EE101AB8EE411A00
:1033E000DFED2E1A81EE812A9FED291AC0EE011A17
:1033F000234E20363668C6F3080601EE106AB8EE92
:10340000411A31EE811AF7EE001A31EE211A62EEFE
:10341000010A1DE001EE101AB8EE411A9FED1E2AB6
:10342000C2EE011A9FED1A1A80EE012A144E2036C0
:103430003668C6F3080601EE106AB8EE411A32EE9D
:10344000011AB7EE002A31EE021A61EE810A00BFBE
:1034500000BF0B4E20363668C6F34626721C01EEBE
:10346000102AB8EE411AC0EE811ABCEEE11A11EE34
:10347000100A00E0002001E0034800BF00BFF0BDDB
:10348000104402580090D00300093D0040787D01AF
:10349000000000460024744C0024744A20BCBE4B3B
:1034A0002DE9F047044614B90120BDE8F0872078E3
:1034B00000F00100002870D0F948006800F03808DA
:1034C000F7481830D0F80090B8F1100F06D0B8F1D6
:1034D000180F0FD109F0030002280BD1F048103863
:1034E0000068C0F3404000286AD06068002867D1B7
:1034F0000120DAE700BF6068B0F5803F08D1E848F6
:103500001038006840F48030E549103908602EE03A
:10351000606868B9E2481038006820F48030E049FB
:10352000103908600846006820F4802008601EE01A
:103530006068B0F5A02F0DD1D9481038006840F46C
:103540008020D749103908600846006840F4803070
:1035500008600CE0D2481038006820F48030D04970
:10356000103908600846006820F48020086000BF19
:10357000606898B1FDF73CFD054606E0FDF738FDB3
:10358000401B642801D903208FE7C5481038006824
:10359000C0F340400028F1D012E012E0FDF728FD12
:1035A000054606E0FDF724FD401B642801D90320F1
:1035B0007BE7BB4810380068C0F340400028F1D1D9
:1035C00000BF207800F00200022879D1B4480068DA
:1035D00000F03808B2481830D0F80090B8F1000F69
:1035E00005D0B8F1180F35D109F0030088BBAC48FD
:1035F00010380068C0F3800018B1E06808B90120F5
:1036000053E7A7481038006820F01900E168084324
:10361000A34910390860FDF7EBFC054606E0FDF70D
:10362000E7FC401B022801D903203EE79C481038E4
:103630000068C0F380000028F1D099480C38006879
:1036400020F0FE40217C40EA016095490C39086079
:1036500045E0FFE7E06838B391481038006820F093
:103660001900E16808438E4910390860FDF7C0FC75
:10367000054606E0FDF7BCFC401B022801D90320EB
:1036800013E7874810380068C0F380000028F1D0A5
:1036900083480C38006820F0FE40217C40EA01603D
:1036A0007F490C3908601AE07D481038006820F026
:1036B00001007B4910390860FDF79AFC054607E0D8
:1036C0000EE0FDF795FC401B022801D90320ECE633
:1036D000734810380068C0F380000028F1D100BFA3
:1036E000207800F0100010286FD16D48006800F0BD
:1036F00038086B481830D0F80090B8F1080F06D0A1
:10370000B8F1180F1CD109F00300012818D1644842
:1037100010380068C0F3002020B1E069802801D093
:103720000120C2E600BF5E48001F006820F07C5008
:1037300094F8201040EA01605949091F086043E0ED
:10374000E06938B356481038006840F080005449AA
:1037500010390860FDF74CFC054606E0FDF748FC13
:10376000401B022801D903209FE64D48103800680D
:10377000C0F300200028F1D000BF4948001F0068B6
:1037800020F07C5094F8201040EA01604449091F61
:10379000086019E042481038006820F08000404975
:1037A00010390860FDF724FC054606E0FDF720FC13
:1037B000401B022801D9032077E6394810380068F9
:1037C000C0F300200028F1D100BF207800F00800ED
:1037D000082836D16069D0B131486430006840F0C3
:1037E00001002F4964310860FDF702FC054606E040
:1037F000FDF7FEFB401B022801D9032055E62848AF
:1038000064300068C0F340000028F1D019E024487B
:103810006430006820F00100214964310860FDF740
:10382000E7FB054606E0FDF7E3FB401B022801D954
:1038300003203AE61A4864300068C0F340000028CC
:10384000F1D1207800F02000202838D1A069D0B133
:1038500013481038006840F480501149103908604E
:10386000FDF7C6FB054606E0FDF7C2FB401B02283C
:1038700001D9032019E60A4810380068C0F3403027
:103880000028F1D01BE006481038006820F4805072
:10389000034910390860FDF7ABFB054609E000005D
:1038A00010440258FDF7A4FB401B022801D9032055
:1038B000FBE5D0480068C0F340300028F2D1207802
:1038C00000F0040004287DD1CB48006840F48070EB
:1038D000C9490860FDF78CFB054606E0FDF788FB4B
:1038E000401B642801D90320DFE5C348006800F4C9
:1038F00080700028F2D000BFA068012808D1BD4820
:103900007030006840F00100BA49703108602DE065
:10391000A06868B9B7487030006820F00100B54968
:10392000703108600846006820F0040008601DE05F
:10393000A06805280DD1AF487030006840F0040041
:10394000AC49703108600846006840F0010008602A
:103950000CE0A8487030006820F00100A5497031E3
:1039600008600846006820F00400086000BFA068F6
:10397000A0B1FDF73DFB054608E0FDF739FB401B14
:1039800041F28831884201D903208EE59948703090
:103990000068C0F340000028EFD013E0FDF728FBDB
:1039A000054608E0FDF724FB401B41F288318842C0
:1039B00001D9032079E58F4870300068C0F34000DA
:1039C0000028EFD1606A00287DD08A481030006856
:1039D00000F03800182877D0606A022875D1854831
:1039E000006820F0807083490860FDF701FB054600
:1039F00006E0FDF7FDFA401B022801D9032054E53B
:103A00007C480068C0F340600028F2D100BFD4E9D0
:103A10000A1041EA001077492831096840F2F33270
:103A200091430843734928310860208E401EC0F33B
:103A30000800616B491E4FF47E4202EA41210843AF
:103A4000218F491ED20102EA014108433C21095D50
:103A5000491E120202EA01610843664930310860DA
:103A600000BF081F006820F00100091F08606148BE
:103A7000343000684FF6F8718843A16C40EAC10009
:103A80005C49343108605B482C30006820F00C0041
:103A9000216C084357492C3108600846006820F023
:103AA0000200616C084353492C31086008460068E5
:103AB00040F4803008600846006840F40030086038
:103AC0000846006802E092E038E01FE040F4802001
:103AD00008600846006840F001000860454800683A
:103AE00040F0807043490860FDF782FA054606E021
:103AF000FDF77EFA401B022801D90320D5E43D489A
:103B00000068C0F340600028F2D070E039480068D7
:103B100020F0807037490860FDF76AFA054606E034
:103B2000FDF766FA401B022801D90320BDE43148A5
:103B30000068C0F340600028F2D158E02D482830DA
:103B400007682C4830300668606A012821D007F0E9
:103B50000301A06A81421CD1C7F30511E06A8842C3
:103B600017D1C6F30801206B401E814211D1606B52
:103B7000401EC6F3462188420BD1A06B401EC6F3FF
:103B80000641884205D1E06B401EC6F306618842BB
:103B900001D0012089E4174834300068C0F3CC0715
:103BA000A06CB84223D013482C30006820F00100EC
:103BB00010492C310860FDF71BFA054600BFFDF7E0
:103BC00017FA401BFBD00B48343000684FF6F871F1
:103BD0008843A16C40EAC1000649343108600548B9
:103BE0002C30006840F0010002492C3108600020B0
:103BF0005BE4000000440258004802582DE9F041FF
:103C000088B004460F464FF00008032084F83000C7
:103C1000A06B032820D0B7F5004F04D1606B40F0B3
:103C2000805060631CE0B7F5804F07D1204602F05A
:103C30009BFE0646606B3043606311E03FB920464F
:103C400002F05EFE0646606B3043606308E0606B26
:103C500040F00060606303E0606B40F080506063A0
:103C6000606B28B14248216888634FF0010869E021
:103C70004FF480300021FDF7B3FE0546002D5BD0E8
:103C800060680390A0680490059720690690394801
:103C9000B5FBF0F16069814202D86069079041E0AC
:103CA000A06DB0F5007F02D1606907903AE0A06D89
:103CB000B0F5807F1BD1606950B92E48854204D988
:103CC0004000B5FBF0F007902CE06069079029E018
:103CD00060694000B5FBF0F02649884204D94800ED
:103CE000B5FBF0F007901DE0606907901AE060698D
:103CF00050B92148854204D94000B5FBF0F0079047
:103D000010E0606907900DE060694000B5FBF0F0DD
:103D10001949884204D94800B5FBF0F0079001E04A
:103D200060690790DDE90601CDE90001206803A97B
:103D30000EC902F06BFB05E0606B40F00060606351
:103D40004FF001084FF40071206802F01AF806469F
:103D50003EB1074821688863606B304360634FF071
:103D60000108012084F83000404608B0BDE8F08129
:103D7000FF0FE01F80F0FA0240787D0110B5024687
:103D8000D06D800F0870D06DC0F383604870D06D27
:103D9000C0F301608870D06D000CC870B2F85C0090
:103DA000000A087192F85C004871106E000DC8801E
:103DB000106EC0F3034008726020805AC0F3C03018
:103DC00048726020805AC0F3803088726020805A28
:103DD000C0F34030C8726020805AC0F300300873CE
:103DE00000204873906B002836D16020805A8005EF
:103DF000030D506E43EA90700861506EC0F3C260CC
:103E00000875506EC0F302604875506EC0F34250A2
:103E10008875506EC0F38240C875506EC0F3C230D2
:103E200008760869401C90640B7E906C03F00703D1
:103E30009B1C01249C4060439064087A00F00F03AF
:103E400001209840D064D2E912035B0A5843106500
:103E50004FF40073536521E0906B012813D160206B
:103E6000805C8006830A506E43EA1040086108694E
:103E7000401C83029364936C13654FF40073D36406
:103E8000D36C53650AE02E4813689863506B40F07A
:103E900080505063012082F8300010BD6420805AA9
:103EA000C0F3803001F8190F6420805AC0F3C610A7
:103EB00048706420805C00F07F008870906EC00FB6
:103EC000C870906EC0F341700871906EC0F382604C
:103ED0004871906EC0F383508871906EC0F340506B
:103EE000C87100200872906EC0F3004048726820CC
:103EF000805AC0F3C03088726820805AC0F3803086
:103F0000C8726820805AC0F3403008736820805A15
:103F1000C0F3003048736820805AC0F38120887352
:103F20006820805AC0F30120C8736820805CC0F309
:103F3000460008740120487419390020ADE70000DC
:103F4000FF0FE01FF8B504460020009069462046A8
:103F500002F0BEFC054615B1606B28436063009813
:103F6000C0F343263046F8BDF0B591B005460C4687
:103F7000002795F83000032802D1012011B0F0BDD0
:103F800001A9284602F00AFC064656B12F482968C6
:103F90008863686B30436863012085F8300001272F
:103FA00043E00198C0F3811020700198C0F34010E5
:103FB0006070019800F47F00000A019940EA1160E6
:103FC000608002980006029901F47F4140EA0120D6
:103FD000029901F47F0140EA1120029940EA116040
:103FE0006060039820720398000A60720398C0F31F
:103FF0000350A0720498C0B2039901F07F4140EAD7
:104000001140A0810498C0F38520A0730498C0F3E8
:104010000120E0730498C0F303102074049800F0AA
:104020000F0060740598000EA0744FF400712868AA
:1040300001F0A7FE06463EB10448296888636E6316
:10404000012085F830000127384697E7FF0FE01F71
:10405000F0B585B0044614B9012005B0F0BD94F860
:10406000300020B900202076204600F0B3F804206C
:1040700084F83000204600F045F808B10120ECE754
:1040800069462046FFF770FF08B10120E5E79DF87B
:1040900010609DF81170A06B012805D106B91FB101
:1040A0004FF40071A16507E0A06B012802D1010265
:1040B000A16501E00021A1652046E168FFF79EFDB2
:1040C00008B10120C9E7FCF793FF05460CE0FCF7B7
:1040D0008FFF401B401C38B94FF000406063012047
:1040E00084F830000320B8E72046FFF72BFF0428B0
:1040F000EDD100206063E062012084F830000020F0
:10410000ABE70000F0B587B00446002002900390B2
:10411000049005904FF480300021FDF761FC0646C5
:104120003EB9012084F83000C0066063012007B06A
:10413000F0BD2548B6FBF0F00690DDE90501CDE9BC
:104140000001206802A90EC902F060F9206802F09F
:1041500077F9069818B106984000B6FBF0F636B12C
:104160001A48B0FBF6F0471C3846FCF72FFE2046F5
:1041700002F0AEFA05463DB1012084F83000606BD4
:10418000284360630120D2E7204602F01BFA05466F
:104190003DB1012084F83000606B2843606301204A
:1041A000C5E74FF40071206801F0EBFD05464DB105
:1041B000074821688863606B28436063012084F8A6
:1041C0003000B4E70020B2E700350C0010210100F8
:1041D000FF0FE01F10B5B6B00446142130A8FCF75D
:1041E0004FF9B82102A8FCF74BF9344920688842FE
:1041F00062D14FF480310020CDE9021020200490DC
:104200008121059102210691079105210891402104
:10421000099100210A910B91C002169002A8FDF7A6
:10422000B5FF08B1FCF7F1FB00BF2548006840F47A
:104230008030234908600846006800F4803001900F
:1042400000BF00BF00BF1E480C30006840F00400F3
:104250001B490C3108600846006800F0040001901A
:1042600000BF00BF00BF0846006840F008000860BB
:104270000846006800F00800019000BF00BF4FF43E
:10428000F85030900220319000203290032033907B
:104290000C20349030A90B48FCF7ACFD0420309082
:1042A0000220319000203290032033900C20349073
:1042B00030A90548FCF79EFD36B010BD00700052D5
:1042C000D444025800080258000C025870470000FD
:1042D0002DE9F05F0446206807692068D0F8148053
:1042E00007EA08052068D0F808904FF0000A94F813
:1042F0008160206800F1300B08F40060B0F5006FB9
:104300000ED107F0080008280AD12068806940F41F
:10431000006021688861204600F0AFFABDE8F09F98
:1043200005F0400070B905F0200058B905F0040010
:10433000042807D12046616F88472046216F8847AF
:104340004FF0010A05F0400050B905F0010038B106
:1043500005F0040020B92046216F88474FF0010A7C
:1043600005F0200058B905F00200022807D105F039
:10437000040020B92046616F88474FF0010ABAF166
:10438000000F00D0CAE705F00800082863D12068B4
:10439000806940F00800216888612068806940F0E9
:1043A0001000216888612068806940F400602168FD
:1043B00088612068006920F0080021680861206891
:1043C000806800F4404038BB22E0E0680F2807D93D
:1043D0002068006B616E0860606E001D606612E010
:1043E000E068072807D9BBF80000616E0880606E9E
:1043F000801C606607E0206890F83000616E0870ED
:10440000606E401C6066B4F86A00401EA4F86A0042
:10441000B4F86A000028D8D1204602F0E1FA012061
:1044200084F88100D4F8840018B12046FFF74EFFCD
:1044300074E7052E03D1204600F07BFB0AE0042E32
:1044400003D1204600F018FA04E0032E02D12046E2
:1044500000F06EFB62E705F4587000287DD005F08F
:10446000400058B1D4F8840040F00400C4F884003F
:104470002068806940F040002168886105F4007080
:1044800058B1D4F8840040F00100C4F884002068DA
:10449000806940F400702168886105F4807058B12B
:1044A000D4F8840040F00800C4F8840020688069D3
:1044B00040F480702168886105F0200058B1D4F87C
:1044C000840040F08000C4F884002068806940F0D7
:1044D000200021688861D4F88400A8B320680068AF
:1044E00020F00100216808602068006940F26B310B
:1044F00088432168086109F44040B0F5404F25D158
:104500002068806820F4404021688860E06F60B1D6
:104510001348E16F0865E06FFCF78CFA28B1D4F816
:10452000840040F04000C4F88400A06F60B10C48E3
:10453000A16F0865A06FFCF77DFA28B1D4F884005C
:1045400040F04000C4F8840006E006E0012084F852
:1045500081002046FFF7BAFEE0E600BFDEE600007D
:10456000B76A000870B504460CB9012070BD606AD6
:1045700000B900BF0021A1626349206888420CD0C5
:1045800062492068884208D061492068884204D086
:10459000E0680F2801D90120E8E7204602F099FAE7
:1045A000054659492068884209D058492068884200
:1045B00005D057492068884201D0082D0DD85249AE
:1045C0002068884207D051492068884203D050496A
:1045D0002068884203D1102D01D90120C6E794F844
:1045E000810028B9002084F88000204600F092F86D
:1045F000022084F881002068006820F00100216812
:1046000008602068806800F4F816A069B0F1806F37
:1046100011D16068B0F5800F01D1A06B28B160683E
:1046200048B9A06BB0F1805F05D12068006840F404
:10463000805021680860606800F48000B0F5800F49
:104640000BD1E068072808D32068006820F4807048
:10465000216D08432168086005E02068006820F4A7
:10466000807021680860A16AE06908433043E16B0B
:104670000843E168084321688860616A606B084309
:10468000A16B0843A1690843216908436169084394
:10469000216A084361680843E16C0843A168084344
:1046A000A16C0843A16D08432168C860606878B9AF
:1046B0002068806820F4C05040F400602168886061
:1046C0002068806820F4C06040F4806021688860C1
:1046D0002068006D20F0010021680865606800F422
:1046E0008000B0F5800F07D12068C06820F000403E
:1046F000616D08432168C8600020C4F8840001206F
:1047000084F88100002031E700300140003800408B
:10471000003C004010B5B6B00446142130A8FBF7A9
:10472000AFFEB82102A8FBF7ABFE4D4920688842D6
:1047300058D141140020CDE902101A9002A8FDF7CB
:1047400025FD08B1FCF761F900BF4648006840F458
:104750000050444908600846006800F40050019089
:1047600000BF00BF00BF3F481038006840F0100095
:104770003C49103908600846006800F010000190BC
:1047800000BF00BF542030900220319000203290B2
:10479000032033900520349030A93348FCF72AFBDE
:1047A000002205215420FCF73FFD5420FCF728FD92
:1047B0004FF4805030900120319002203290002040
:1047C000339030A92948FCF715FB4FF40040309096
:1047D0000120319000203290339030A92348FCF71B
:1047E00009FB3AE022492068884236D14114002072
:1047F000CDE902101A9002A8FDF7C8FC08B1FCF739
:1048000004F900BF1748006840F48010154908609B
:104810000846006800F48010019000BF00BF00BF90
:1048200010481038006840F020000E491039086028
:104830000846006800F02000019000BF00BF481546
:1048400030900220319000203290012033900520DA
:10485000349030A90748FCF7CDFA36B010BD0000FF
:1048600000340140F0440258001002580018025869
:104870000050014000140258704770472DE9F8437A
:104880000446884616461D46206800F12009FCF7BC
:10489000AFFB074694F88100012802D00220BDE852
:1048A000F883B8F1000F00D00EB90120F7E700BF80
:1048B00094F88000012801D10220F0E7012084F85B
:1048C000800000BF03205C3484F825000020A06233
:1048D000C4F80080A680E680A060A081E081A0618D
:1048E00060615C3CA068B0F5C02F06D1206800680C
:1048F00040F400602168086007E02068C06820F488
:10490000C02040F400302168C860206840686FF320
:104910000F003043216848602068006840F00100C3
:10492000216808606068B0F5800F05D120680068D4
:1049300040F4007021680860E0680F2833D92DE04A
:104940002068406900F0020002280CD1E06D006888
:1049500021680862E06D001DE065B4F86200401E49
:10496000A4F862001AE0FCF743FBC01BA84201D385
:10497000681C00B995B9204602F032F8D4F88400DA
:1049800040F48070C4F88400012084F8810000BFE6
:10499000002084F8800000BF032080E7B4F86200A4
:1049A0000028CDD1A4E0E068072846D940E020687F
:1049B000406900F0020002281FD1B4F8620001280B
:1049C0000ED9E06B60B1E06D006821680862E06DAF
:1049D000001DE065B4F86200801EA4F8620027E0C4
:1049E000E06D0088A9F80000E06D801CE065B4F877
:1049F0006200401EA4F862001AE0FCF7F9FAC01B3E
:104A0000A84201D3681C00B995B9204601F0E8FF1F
:104A1000D4F8840040F48070C4F88400012084F845
:104A2000810000BF002084F8800000BF032036E72B
:104A3000B4F862000028BAD15AE055E02068406915
:104A400000F00200022834D1B4F8620003280FD924
:104A5000E06B40280CD9E06D006821680862E06DC9
:104A6000001DE065B4F86200001FA4F862003BE09E
:104A7000B4F8620001280ED9E06B60B1E06D0088E7
:104A8000A9F80000E06D801CE065B4F86200801EAB
:104A9000A4F8620028E0E06D0078216881F8200029
:104AA000E06D401CE065B4F86200401EA4F86200AE
:104AB0001AE0FCF79DFAC01BA84201D3681C00B99C
:104AC00095B9204601F08CFFD4F8840040F4807042
:104AD000C4F88400012084F8810000BF002084F81D
:104AE000800000BF0320DAE6B4F862000028A5D1F8
:104AF0002B46002208212046009702F0D1F828B169
:104B0000D4F8840040F02000C4F88400204601F06E
:104B100067FF012084F8810000BF002084F8800036
:104B200000BFD4F8840008B10120B8E60020B6E642
:104B30007047704770477047704710B504460CB90E
:104B4000012010BD94F83D0028B9002084F83C00F5
:104B5000204600F029F8022084F83D00211D20683D
:104B600002F0BEF9012084F8480000BF84F83E003E
:104B700001213F200155402001554120015542208F
:104B800001554320015500BF00BF012084F84400B7
:104B900045200155462001554720015500BF012001
:104BA00084F83D000020CCE770470000014691F8F2
:104BB0003D00012801D001207047022081F83D000E
:104BC0000868C06840F001000B68D860204B086896
:104BD000984223D00868B0F1804F1FD01D4B086861
:104BE00098421BD01C4B0868984217D01B4B086892
:104BF000984213D01A4B086898420FD0194B086896
:104C000098420BD0184B0868984207D0174B086899
:104C1000984203D0164B0868984210D10868806803
:104C2000144B00EA0302062A0FD0B2F5803F0CD0E5
:104C30000868006840F001000B68186005E008682B
:104C4000006840F001000B6818600020B4E7000025
:104C5000000001400004004000080040000C00403B
:104C600000040140001800400040014000E0004006
:104C700000E4004007000100704770B5044620685A
:104C8000C6682068056905F00200022819D106F0FF
:104C90000200022815D1401F2168086101202077F9
:104CA0002068806900F0030018B12046FFF7E4FF98
:104CB00005E0204600F0ADF8204600F0ABF80020FB
:104CC000207705F00400042819D106F00400042818
:104CD00015D1C043216808610220207720688069CF
:104CE00000F4407018B12046FFF7C6FF05E02046EB
:104CF00000F08FF8204600F08DF80020207705F0B6
:104D00000800082819D106F00800082815D1C0436A
:104D100021680861042020772068C06900F0030042
:104D200018B12046FFF7A8FF05E0204600F071F813
:104D3000204600F06FF80020207705F010001028C2
:104D400019D106F01000102815D1C0432168086160
:104D5000082020772068C06900F4407018B1204610
:104D6000FFF78AFF05E0204600F053F8204600F0E8
:104D700051F80020207705F0010048B106F001004D
:104D800030B16FF0010021680861204600F044F85E
:104D900005F08000802804D005F40050B0F5005FD5
:104DA0000AD106F08000802806D16FF402502168F5
:104DB00008612046FFF7BFFE05F48070B0F5807FE4
:104DC0000AD106F08000802806D16FF48070216837
:104DD00008612046FFF7AEFE05F04000402809D1EB
:104DE00006F04000402805D1C043216808612046F4
:104DF00000F01EF805F02000202809D106F0200060
:104E0000202805D1C043216808612046FFF794FEA1
:104E100070BD70477047000010B504460349206814
:104E2000884201D1FCF7EAF810BD00000000014003
:104E30007047014600BF91F88400012801D102208B
:104E40007047012081F8840000BF2420C1F8880049
:104E5000086802680868006820F001000B681860A4
:104E600022F0005200204866086802602020C1F845
:104E7000880000BF002081F8840000BF00BFDFE78A
:104E800070B504460D4600BF94F88400012801D196
:104E9000022070BD012084F8840000BF2420C4F8E3
:104EA0008800206806682068006820F001002168FA
:104EB00008602068806820F060602843216888606E
:104EC000204602F081F8206806602020C4F888009F
:104ED00000BF002084F8840000BF00BFD9E770B590
:104EE00004460D4600BF94F88400012801D1022039
:104EF00070BD012084F8840000BF2420C4F888001D
:104F0000206806682068006820F0010021680860B9
:104F10002068806820F0604028432168886020462F
:104F200002F052F8206806602020C4F8880000BF14
:104F3000002084F8840000BF00BFD9E710B5044604
:104F40000CB9012010BDA06900B100E000BFD4F889
:104F5000880028B9002084F88400204600F02AF850
:104F60002420C4F888002068006820F0010021682F
:104F70000860A06A10B1204602F052F8204602F004
:104F800077F9012800D1DDE72068406820F49040DF
:104F9000216848602068806820F02A0021688860C5
:104FA0002068006840F0010021680860204602F097
:104FB000B3F8C7E710B5B6B00446142130A8FBF724
:104FC0005FFAB82102A8FBF75BFA3D4920688842E6
:104FD00036D104210020CDE90210269002A8FDF769
:104FE000D5F808B1FBF711FD00BF3648006840F066
:104FF0000800344908600846006800F00800019085
:1050000000BF00BF00BF2F481438006840F0020006
:105010002C49143908600846006800F0020001902D
:1050200000BF00BFC020309002203190002032909D
:1050300033900820349030A92348FBF7DBFE3CE096
:1050400022492068884238D101210020CDE9021090
:10505000209002A8FDF79AF808B1FBF7D6FC00BF34
:105060001848001F006840F010001649091F08602A
:105070000846006800F01000019000BF00BF00BFAC
:1050800010481438006840F001000E4914390860D7
:105090000846006800F00100019000BF00BF4FF417
:1050A000C060309002203190002032903390072071
:1050B000349030A90648FBF79DFE36B010BD0000C5
:1050C000000C0058F444025800040258001001403B
:1050D000000002582DE9F84F04460E46174699463F
:1050E000D4F88800202854D106B117B90120BDE8B2
:1050F000F88F00205434E06321206063FBF778FFD1
:10510000824627806780543CA068B0F5805F04D158
:10511000206910B90025B04602E035464FF000087E
:1051200020E05346002280212046CDF8009002F076
:10513000B3FB20B12020C4F888000320D7E745B98D
:10514000B8F80000C0F308002168886208F102087E
:1051500003E02878216888626D1CB4F85600401E70
:10516000A4F85600B4F856000028DAD153460022BD
:1051700040212046CDF8009002F08EFB20B1202087
:10518000C4F888000320B2E72020C4F8880000207B
:10519000ADE70220ABE700BFFEE7000010B5144802
:1051A0008089401E83B212484089401E82B200218D
:1051B000084600F0E7F80122D1030E48FBF712FF82
:1051C0000F210D48C160FFF7CDF909484089084B10
:1051D0009B8900FB03F20648808881B2064800F0F4
:1051E0000DF807210448C160FFF7BCF910BD0000AD
:1051F00068E801200018025888DF00242DE9F84FE4
:105200000446894617464FF47A764FF0000B00BFEC
:1052100094F88000012802D10220BDE8F88F012017
:1052200084F8800000BFFBF7E3FE804694F881001D
:10523000012808D04FF0020B00BF002084F8800046
:1052400000BF5846E9E7032084F881000020C4F835
:105250008400A4F86070A4F862703D4649EA094AE7
:105260006066A4F86800A4F86A0060672067206898
:10527000006840F4006021680860206840686FF3AF
:105280000F00216848602068006840F00100216834
:1052900008606068B0F5800F05D12068006840F4B0
:1052A0000070216808602EE02068406900F002006C
:1052B00002280DD1012D06D9E06B20B12068C0F87D
:1052C00020A0AD1E1FE02068A0F820906D1E1AE0FF
:1052D000FBF78EFEA0EB0800B04201D3701C00B9B2
:1052E0008EB9204600F022FB00BF002084F8800029
:1052F00000BFD4F8840040F48070C4F8840001201A
:1053000084F8810089E7002DCED1434600224FF476
:1053100080512046009600F074FB28B1D4F8840038
:1053200040F02000C4F884002068006840F48060E9
:1053300021680860434600224FF400612046009631
:1053400000F05FFB28B1D4F8840040F02000C4F8DE
:105350008400204600F0EAFA2068806940F400608A
:105360002168886100BF002084F8800000BF012010
:1053700084F88100D4F8840008B101204DE7584634
:105380004BE700002DE9F04104460D4616461F4646
:105390002A2000F0A5F81049897B214488B200F04A
:1053A000B3F80D49897B314488B200F0ADF82B2069
:1053B00000F096F80849C97B294488B200F0A4F8A7
:1053C0000549C97B394488B200F09EF82C2000F0D2
:1053D00087F8BDE8F081000068E801200149086015
:1053E000704700009C0B002430B5002300210022F0
:1053F00000F47804230A00F47C446109C0F3C40279
:1054000043EA01041443014D6C6030BD68E801209B
:1054100030B500230021002200F47804230A00F4B0
:105420007C446109C0F3C40243EA01041443014D02
:105430002C6030BD68E8012010B504462448447251
:105440007CB9362000F04CF8702000F0A1F8002064
:105450001F498873C873F02048814FF4A070888179
:1054600034E0022C0FD1362000F03AF8002000F092
:105470008FF8002016498873C8734FF4A0704881D4
:10548000F020888122E0012C0FD1362000F028F88E
:10549000A02000F07DF800200D498873C873F0202B
:1054A00048814FF4A070888110E0032C0ED1362083
:1054B00000F016F8C02000F06BF800200449887353
:1054C000C8734FF4A0704881F020888110BD00009F
:1054D00068E80120014908727047000068E801206F
:1054E00001B500224FF400410548FBF77BFD4FF466
:1054F0007A73012269460348FFF7C0F908BD00002E
:105500000018025888DF002438B504460122D10370
:105510000848FBF767FD20128DF80000E0B28DF817
:1055200001004FF47A73022269460348FFF7A6F997
:1055300038BD00000018025888DF002470B5ADF5B2
:10554000207D04460D466E000122D1030E48FBF774
:1055500049FD00200CE034F81010090A0DF8101075
:1055600014F81010012202EB40020DF80210401C4A
:10557000A842F0D3B2B24FF47A7369460348FFF7FA
:105580007DF90DF5207D70BD0018025888DF0024DC
:1055900001B50122D1030548FBF724FD4FF47A73CE
:1055A000012269460248FFF769F908BD0018025850
:1055B00088DF00241FB50020009001900290039026
:1055C000FBF7D0FD01208DF8000000208DF80100D0
:1055D00001901F208DF8080087208DF80900002019
:1055E0008DF80A008DF80B0001208DF80C008DF865
:1055F0000D0000208DF80E008DF80F006846FBF7B7
:1056000083FD0420FBF7C4FD1FBD000010B5074A51
:10561000002107482AF0A0FC06490860064A00213C
:1056200006482AF099FC0649086010BDF86F050885
:10563000E36C0008A40B00241C700508CDCF000803
:10564000A80B002400B587B0142102A8FAF718FFB0
:1056500000BF4448006840F0100042490860084616
:10566000006800F01000019000BF00BF00BF0846B6
:10567000006840F0040008600846006800F004007C
:10568000019000BF00BF00BF0846006840F0200046
:1056900008600846006800F02000019000BF00BFCD
:1056A00000BF0846006840F08000086008460068B7
:1056B00000F08000019000BF00BF00BF08460068F6
:1056C00040F0010008600846006800F00100019009
:1056D00000BF00BF00BF0846006840F00800086037
:1056E0000846006800F00800019000BF00BF00BF3E
:1056F0000846006840F0400008600846006800F076
:105700004000019000BF00BF00BF0846006840F0A5
:10571000020008600846006800F00200019000BF27
:1057200000BF00224FF410410F48FBF75BFC4FF421
:1057300080500290012003900220049000200590E8
:1057400002A90948FBF756FB4FF4004002900120E4
:10575000039000200490059002A90348FBF74AFB40
:1057600007B000BDE04402580018025810B51848B0
:10577000184908604FF4E130486000211548816005
:10578000C16001610C2141610021816101624162BE
:1057900000201049886248660846FFF7CFFB08B131
:1057A000FBF733F900210B48FFF799FB08B1FBF732
:1057B0002CF900210748FFF763FB08B1FBF725F937
:1057C0000448FFF736FB08B1FBF71FF910BD0000D6
:1057D000000C0058E4DD002410B50A480A490860AE
:1057E000002048600021084881604FF48041C1607A
:1057F000002101614161FEF72BFC08B1FBF705F9BF
:1058000010BD0000007000520CDF002410B51648D7
:10581000164908604FF480004860411113488160C8
:105820000721C1600021016141614FF00051816198
:105830000021C161016241628162C1624FF0804119
:105840004163002181632021C1630021016441641F
:105850008164C164016541658165FEF783FE08B11D
:10586000FBF7D3F810BD00000034014088DF0024AE
:1058700010B5114811490860002048604FF480219C
:105880000E4881600721C160002101614161816191
:10589000016241628162C16241638163C1630164EB
:1058A00041648164C164016541658165FEF75AFE0A
:1058B00008B1FBF7AAF810BD0050014010E0002429
:1058C00010B51848184908604FF4E13048600021CD
:1058D00015488160C16001610C2141610021816135
:1058E000C1610162416200200F4988620846FFF7EA
:1058F00025FB08B1FBF789F800210B48FFF7EFFA09
:1059000008B1FBF782F800210748FFF7B9FA08B1A0
:10591000FBF77BF80448FFF78CFA08B1FBF775F842
:1059200010BD00000010014078DE002402685169BB
:105930000268926942F0080203689A6102689269FB
:1059400042F0100203689A610268126822F00102B4
:1059500003681A600268126940F26F339A43036861
:105960001A610268926822F4404203689A6090F8D3
:105970008120042A0ED001F020025AB1D0F88420F0
:1059800042F08002C0F884200268926942F020024E
:1059900003689A6190F88120032A0ED001F040023A
:1059A0005AB1D0F8842042F00402C0F88420026882
:1059B000926942F0400203689A6101F400725AB1A0
:1059C000D0F8842042F00102C0F884200268926975
:1059D00042F4007203689A6101F480725AB1D0F8FF
:1059E000842042F00802C0F884200268926942F4E0
:1059F000807203689A610022A0F86220A0F86A20F1
:105A000070472DE9F04106460C4617469846069D1C
:105A10000BE0FBF7EDFAA0EB0800A84201D3681CED
:105A200000B915B90320BDE8F08130684069204015
:105A3000A04201D1012000E00020B842E9D00020BE
:105A4000F1E700BFFEE700BFFEE700002DE9F041EF
:105A500004460E4600275548006800F0030003285E
:105A600002D10120BDE8F08150482838006820F0BC
:105A700080604E4928390860FBF7BAFA054606E00F
:105A8000FBF7B6FA401B022801D90320EAE7474892
:105A900028380068C0F3C0600028F1D100BF434837
:105AA000006820F47C30216840EA01303F490860FA
:105AB000A088401EC0F30800A168491E4FF47E4232
:105AC00002EA41210843A189491ED20102EA0141AB
:105AD0000843217C491E120202EA0161084333494E
