:020000040800F2
:1000000020F4012471040008B94000086139000897
:10001000B7400008910A0008B7550008000000002A
:10002000000000000000000000000000B103000814
:10003000930A0008000000000D040008FB4B0008B4
:100040008F0400088F0400088F0400088F04000844
:100050008F0400088F0400088F0400088F04000834
:100060008F0400088F0400088F0400088F04000824
:100070008F0400088F0400088F0400088F04000814
:100080008F0400088F0400088F0400088F04000804
:100090008F0400088F0400088F0400088F040008F4
:1000A0008F040008C14D00088F0400088F04000869
:1000B0008F0400088F0400088F0400088F040008D4
:1000C0008F0400088F0400088F0400088F040008C4
:1000D0008F0400088F0400088F0400088F040008B4
:1000E0008F0400088F040008000000008F0400083F
:1000F0008F0400088F0400088F0400088F04000894
:100100008F0400088F0400088F0400088F04000883
:100110008F0400088F0400088F0400088F04000873
:100120008F0400088F0400088F0400088F04000863
:100130008F0400088F0400088F0400088F04000853
:1001400000000000000000000000000000000000AF
:100150008F0400088F0400088F0400088F04000833
:100160008F0400088F0400088F0400088F04000823
:100170008F0400088F0400088F04000800000000AE
:100180008F0400088F0400088F0400088F04000803
:10019000454300088F0400088F0400088F040008FE
:1001A0008F0400088F0400088F040008000000007E
:1001B0008F0400088F0400088F0400088F040008D3
:1001C0008F0400088F0400080000000000000000F9
:1001D00000000000000000008F0400080000000084
:1001E000000000000000000000000000000000000F
:1001F00000000000000000008F0400088F040008C9
:100200008F0400088F040008000000008F0400081D
:100210008F0400088F0400088F0400088F04000872
:100220008F040008000000008F0400080000000098
:100230008F0400088F040008000000008F040008ED
:100240008F0400088F0400088F0400088F04000842
:100250008F0400088F0400088F0400088F04000832
:100260008F0400088F0400088F0400088F04000822
:100270008F0400088F0400088F04000800000000AD
:100280008F0400088F0400088F0400088F04000802
:10029000000000008F0400088F0400080000000028
:1002A000000000008F0400088F0400088F0400087D
:1002B0008F0400088F0400088F0400088F040008D2
:1002C0008F0400088F0400088F04000800F002F873
:1002D00000F05EF80AA090E8000C82448344AAF182
:1002E0000107DA4501D100F053F8AFF2090EBAE880
:1002F0000F0013F0010F18BFFB1A43F0010318475A
:1003000044A0040084A004000A444FF0000C10F83C
:10031000013B13F0070408BF10F8014B1D1108BF83
:1003200010F8015B641E05D010F8016B641E01F823
:10033000016BF9D113F0080F1EBF10F8014BAD1C73
:100340000C1B09D16D1E58BF01F801CBFAD505E091
:1003500014F8016B01F8016B6D1EF9D59142D6D3EB
:10036000704700000023002400250026103A28BF13
:1003700078C1FBD8520728BF30C148BF0B60704717
:10038000002070471FB52FF013FB1FBD10B510BD27
:1003900000F050FB1146FFF7F5FF28F03BFC00F0A2
:1003A0006EFB03B4FFF7F2FF03BC07F08CF900000B
:1003B0002C4B19680868B0E8F04F80F30988BFF348
:1003C0006F8F4FF0000080F311887047000000002D
:1003D00008480068006880F308884FF0000080F348
:1003E000148862B661B6BFF34F8FBFF36F8F00DF23
:1003F00000BF00BF08ED00E0DFF80C00016841F429
:1004000070010160704700BF88ED00E0EFF30980E4
:10041000BFF36F8F134B1A681EF0100F08BF20ED4B
:10042000108A20E9F04F106009B44FF0500080F3BB
:100430001188BFF34F8FBFF36F8F2EF0FFFA4FF08D
:10044000000080F3118809BC19680868B0E8F04F13
:100450001EF0100F08BFB0EC108A80F30988BFF3BC
:100460006F8F704714000020EFF305807047000085
:100470000A4880470A4880470A480047FEE7FEE7E7
:10048000FEE7FEE7FEE7FEE7FEE7FEE7FEE7FEE744
:1004900005480649064A074B70470000990A0008BC
:1004A000B94C0008CD02000820D4002420F4012417
:1004B00020F4002420F40024704753EA020C00F0DA
:1004C00069802DE9F04B4FF00006002B1FBFB3FAF7
:1004D00083F503FA05F424FA05F65E4012BF1643CD
:1004E000B2FA82F502FA05F4C5F120051EBF22FA20
:1004F00005FC44EA0C04203556EA044C4FEA144447
:1005000018BF641C4FF000084FF00009904271EBD7
:10051000030C39D3002919BFB1FA81F701FA07F6A4
:10052000B0FA80F700FA07F6C7F120071EBF20FADD
:1005300007FC46EA0C062037B6FBF4FCA7EB0507E0
:10054000103F07F01F0BCBF120060CFA0BFB2CFA27
:1005500006F644BFB3460026202FA4BF5E464FF0E8
:10056000000B5BEA060C08BF4FF0010B19EB0B09FF
:10057000ABFB027C48EB0608C01B06FB02CC0BFB66
:1005800003CC71EB0C01C1E70B46024641464846DD
:10059000BDE8F08B13B54FF000004FF00001AFF352
:1005A0000080BDE81C4070470FB4044910B503AA91
:1005B000029800F0F3F910BC5DF814FBD4010020A0
:1005C0002DE9F05F894604464FF0000ADFF874B168
:1005D000FB44C0F820A02046E1688847002874D07A
:1005E000252806D0D4E901219047206A401C2062CA
:1005F000F1E700265F462046E16888472028054647
:1006000007DB312D05D2781910F8200C08B106430C
:10061000F1E7B00701D526F00406C4F81CA00027B6
:10062000C4F818A02A2D09D0284604F0C5FF38B315
:1006300004EB8708303DC8F8185019E059F8041B3E
:10064000204604EB87029161E1688847012F054647
:1006500018D1E069002820DA26F020061DE0D8F83D
:10066000180000EB800005EB40003038C8F8180097
:100670002046E1688847054604F09EFF0028EED139
:10068000012F0AD02E2D08D12046E16888477F1C13
:100690000546022F46F02006C4DBA069002803DAD5
:1006A000404246F00106A061F00701D026F0100696
:1006B0006C2D0BD0682D09D04C2D39D06A2D35D03A
:1006C000742D35D07A2D33D016E038E0E1682F460E
:1006D00020468847B842054609D16C2F26D04FF4F2
:1006E0008060E168064320468847054604E06C2F99
:1006F0001AD04FF4807006430DB3A5F141001928BC
:1007000002D8203546F400664A462946204626602F
:100710004E46FFF735FE80B101280BD0F61D26F0BE
:10072000070000F1080956E74020E4E78020D8E7F9
:100730000020D6E706F104094DE7284652E7206A73
:10074000BDE8F09FD494040040EA0103024630B5AE
:100750009B0710D14FF0013400E008C208C91D1BEF
:100760009D4315EAC41FF8D013F0FF0102F8011BE6
:100770000DD01B0AF8E711F8013B002B02F8013BF2
:1007800005D011F8013B002B02F8013BF3D130BD3D
:1007900010B5431C02E010F8011B71B18107FAD1BA
:1007A0004FF0013202C88C1A8C4314EAC211F9D0FE
:1007B000C01A0A0603D0C01E10BDC01A10BD0A041C
:1007C00001D0801E10BD0902FCD0401E10BD032ABE
:1007D00040F2308010F0030C00F0158011F8013B5E
:1007E000BCF1020F624498BF11F801CB00F8013B45
:1007F00038BF11F8013BA2F1040298BF00F801CB09
:1008000038BF00F8013B11F0030300F0D980083A2B
:10081000C0F0088051F8043B083A51F804CBA0E836
:100820000810F5E7121D5CBF51F8043B40F8043B8B
:10083000AFF30080D20724BF11F8013B11F801CBC0
:1008400048BF11F8012B24BF00F8013B00F801CB91
:1008500048BF00F8012B704702F0FF0343EA032270
:1008600042EA024200F002B84FF000020429C0F050
:10087000128010F0030C00F01B80CCF1040CBCF1D2
:10088000020F18BF00F8012BA8BF20F8022BA1EB24
:100890000C0100F00DB85FEAC17C24BF00F8012B09
:1008A00000F8012B48BF00F8012B70474FF0000201
:1008B00000B5134694469646203922BFA0E80C5056
:1008C000A0E80C50B1F12001BFF4F7AF090728BF31
:1008D000A0E80C5048BF0CC05DF804EB890028BFAD
:1008E00040F8042B08BF704748BF20F8022B11F0D6
:1008F000804F18BF00F8012B704700004FF0013CFB
:1009000050F8042B51F8043B9A4215D1A2EB0C038A
:10091000934313EACC130BD150F8042B51F8043B4A
:100920009A4209D1A2EB0C03934313EACC13E7D00C
:100930004FF00000704700BFD01A01BAB1FA81F140
:1009400001F0180122FA01F0CB40C1F12001DBB225
:10095000C0B2C01A2CFA01F3D11A914311EAC311A3
:10096000E6D17047704770477047704701694A1C6D
:1009700002610878704700B58FB0CDE901310021E0
:10098000059105497944CDE9031011466846FFF702
:1009900017FE0FB000BD0000E5FFFFFF074B70B56D
:1009A0000D467B44FFF7E7FF0446284600F03AF87F
:1009B00010B14FF0FF3070BD204670BD8FCA0000EF
:1009C00010B5203AC0F00B80B1E81850203AA0E8EA
:1009D0001850B1E81850A0E81850BFF4F5AF5FEA1E
:1009E000027C24BFB1E81850A0E8185044BF18C9D1
:1009F00018C0BDE810405FEA827C24BF51F8043B78
:100A000040F8043B08BF7047D20728BF31F8023BCB
:100A100048BF11F8012B28BF20F8023B48BF00F85F
:100A2000012B7047007B00F0800070470048704742
:100A3000BCD300247546FFF7F9FFAE4605006946B2
:100A4000534620F00700854618B020B5FFF720FD7B
:100A5000BDE820404FF000064FF000074FF00008BF
:100A60004FF0000B21F00701AC46ACE8C009ACE840
:100A7000C009ACE8C009ACE8C0098D46704710B5A4
:100A80000446AFF300802046BDE81040FFF789BC64
:100A9000FEE7704772B6FEE7054906480A6842F06D
:100AA00002020A60016811F4005FFBD07047000089
:100AB0000C48025804480258002804BF012070471F
:100AC00090F83510022903D080214165012070473C
:100AD0002DE9F05FDFF8ECB101687B4A7B4B5945AB
:100AE000DFF8ECC17B4C7C4D7C4E7D4FDFF8F48110
:100AF000DFF8F491DFF8F4A118BF914225D09942B4
:100B000018BF614521D0A14218BFA9421DD0B142F2
:100B10001CBFDFF8DCE1714517D0DFF8D8E1714583
:100B200018BFB94211D0DFF8D0E171451CBFDFF822
:100B3000CCE1714509D0DFF8C8E1714518BF4145E6
:100B400003D0494518BF514524D14FF0040E80F819
:100B500035E0594518BF914217D0994218BF6145F9
:100B600013D0A14218BFA9420FD0B1421CBF6048A8
:100B700081420AD05F48814218BFB94205D05E4821
:100B800081421EBF5D4881425D48086820F0010037
:100B9000086094E0D1F800E0DFF828B12EF00E0EE6
:100BA000C1F800E00168594518BF91421CD0994234
:100BB00018BF614518D0A14218BFA94214D0B14254
:100BC0001CBFDFF82CB159450ED0DFF828B15945CC
:100BD00018BFB94208D0DFF820B159451EBFDFF871
:100BE0001CB15945DFF818B1D1F800B02BF0010B5A
:100BF000C1F800B0DFF8CCE04FF0010B016871459F
:100C000018BF914238D0994218BF614534D0A142F3
:100C100018BFA94230D0B1421CBF354A91422BD0F7
:100C2000344A914218BFB94226D0334A91421CBF80
:100C3000324A914220D0324A914218BF41451BD0DE
:100C4000494518BF514517D02E4A91421CBF2E4A24
:100C5000914211D02D4A91421CBF2D4A91420BD096
:100C60002C4A91421CBF2C4A914205D02B4A9142FA
:100C70001CBF2B4A914218D1016E0A6822F480727F
:100C80000A6090F85C20816D02F01F020BFA02F2FC
:100C90004A60D0E919124A60C16E31B10A6822F483
:100CA00080720A60D0E91C124A604FF00002016DA8
:100CB00080F835B0002980F8342018BF884700201C
:100CC000BDE8F09F100002402800024040000240B2
:100CD000580002407000024088000240A00002401C
:100CE0002804024088040240A0040240B8040240E4
:100CF000B800024010040240400402405804024080
:100D000070040240085402581C54025830540258CF
:100D100044540258585402586C5402588054025893
:100D20009454025870B5044600F028F9B4F1FF3F1E
:100D3000054602D004480078044400F01FF9401B27
:100D4000A042FAD370BD0000000000200B68002212
:100D5000DFF814C2002B08BF70472DE9F84FDFF809
:100D60000CE2012703244FF00F0800BF0B6807FABD
:100D700002F52B4000F0F0800E7906F00306012EFC
:100D800018BF022E1AD1D0F808904FEA4206D1F8C7
:100D90000CB004FA06FA29EA0A090BFA06F646EA42
:100DA00009068660466891F8049026EA0505C9F3AD
:100DB000001909FA02F646EA050545604D6834EA6D
:100DC00005050BD0C5685600D1F8089004FA06FA5C
:100DD00025EA0A0509FA06F63543C5600D7905F0DE
:100DE0000305022D12D1D508D1F810A04FEA42799F
:100DF00000EB85052E6A4FEAD96908FA09FB0AFA61
:100E000009F926EA0B0649EA06062E6291F80490D3
:100E10000568560009F0030904FA06FA09FA06F60D
:100E200025EA0A05354305604D6815F4403F7CD03E
:100E3000DEF8005045F00205CEF80050DEF8005014
:100E400022F0030606F1B04605F00205009595076D
:100E5000D6F808942D0FA0F1B04A08FA05FBBAF5B0
:100E6000003A29EA0B0908BF4FF0000A40D0A0F170
:100E7000B04ABAF5013A08BF4FF0010A38D0A0F1E4
:100E8000B04ABAF5023A08BF4FF0020A30D0A0F1DA
:100E9000B04ABAF5033A08BF4FF0030A28D0A0F1D0
:100EA000B04ABAF5043A08BF4FF0040A20D0A0F1C6
:100EB000B04ABAF5053A08BF4FF0050A18D0A0F1BC
:100EC000B04ABAF5063A08BF4FF0060A10D0A0F1B2
:100ED000B04ABAF5073A08BF4FF0070A08D0A0F1A8
:100EE000B04ABAF5093A0CBF4FF0090A4FF00A0AA6
:100EF0000AFA05FA4FF0B0454AEA0909C6F808941B
:100F0000D1F804902E6819F4801F26EA030618BF52
:100F10001E432E60D1F804906E6819F4001F26EA73
:100F2000030618BF1E436E6000E015E0DCF80450B5
:100F30004E6825EA030516F4003F18BF1D43CCF8A0
:100F40000450DCF800504E6825EA030516F4803F93
:100F500018BF1D43CCF800500B68521CD3407FF4DF
:100F600005AFBDE8F88F000080000058F444025837
:100F7000002A08BF090481617047000001488068A9
:100F80007047000000000020024881680278114488
:100F90008160704700000020032010B500F010F9B8
:100FA00001F038FA0F4A104913681268C3F303239B
:100FB00002F00F02CB5C895C03F01F0201F01F01FD
:100FC000D0400A4A20FA01F11160094908600F2057
:100FD00000F010F800281CBF012010BD00F09EF8A2
:100FE000002010BD18440258E2F902081000002049
:100FF0000C00002010B5102804468AB02CD2002224
:101000000146192000F0ACF8192000F099F81648B4
:1010100004601648016841F001010160006808A9F8
:1010200000F001000990684601F03EF901F0C4F9B2
:101030000F4940000022DFF83CC0B0FBF1F10E4840
:1010400040F2E733C0F800C0C0E90332491EC0E9EE
:10105000011202F0ACF910B10AB0012010BD06482F
:1010600002F0D8F90AB010BD04000020F044025884
:1010700040420F000000014070D30024154BF0B433
:10108000427813491A600B680A1F23F001030B60B2
:1010900043681360057BC37A827A90F80DC02F07EE
:1010A000847B47EA0363C57B43EAC242467A42EA4D
:1010B0008C42077A42EA444242EA0542007842EA18
:1010C000062242EA470210430860F0BC7047000065
:1010D000A0ED00E098ED00E0BFF35F8F0448002131
:1010E0000368044A23F480330360116070470000F2
:1010F00024ED00E094ED00E0074A40F001000549CE
:101100001060086840F480300860BFF34F8FBFF371
:101110006F8F704724ED00E094ED00E0074882B047
:10112000016841F002010160006800220F2100F017
:1011300002000090901E02B000F012B8F444025871
:101140000028B8BF7047410900F01F008A00012144
:1011500002F1E02201FA00F0C2F80001704700003D
:10116000164B30B41B68C3F30223C3F1070CBCF168
:10117000040F88BF4FF0040C1C1D072C34BF002344
:10118000DB1E012404FA0CFC04FA03F5ACF10104A3
:101190002140A5F1010C99400CEA020211430028FC
:1011A0004FEA0111B8BF00F00F0000F1E020ACBF22
:1011B00080F8001480F8141D30BC70470CED00E07E
:1011C000074900F007004FF6FF030A681A4042EA99
:1011D000002040F0FD7040F0806008607047000023
:1011E0000CED00E014490A6812F0040F07D10968F9
:1011F00001F00701814214BF01200020704770B543
:101200000A6822F0070210430860FFF7B7FE0B4D93
:101210000446286810F4005F0CD100BFFFF7AEFE53
:10122000001BB0F57A7F01D9012070BD286810F449
:10123000005FF3D0002070BD0C48025804480258EB
:1012400010B501F067F805490968054AC1F30211B4
:10125000515C01F01F01C84010BD0000204402583D
:10126000E2F9020861494DF8044DDFF884C10B1D15
:101270000A6809681C68DCF800C002F00303C1F3C7
:101280000531C4F30012CCF3CC0C00291CFB02F294
:1012900000EE102AF8EE400A7DD09FED561A564A0D
:1012A000B7EE000ACBB1DFED551A012B01D0022BAE
:1012B0004ED002EE101A1168F8EE422AC1F308016E
:1012C00081EEA22A01EE901AF8EE611A40EE811A20
:1012D00071EE800A62EE200A4FE0494BD3F800C05D
:1012E0001CF0200F1ED0DFF81CC11B6801EE901A05
:1012F000C3F3C1011368F8EE612A2CFA01F101EE83
:10130000901AC3F30801F8EE611A81EEA22A01EEE9
:10131000901AF8EE611A40EE811A71EE800A62EEC0
:10132000200A2AE001EE901A1168DFED372AF8EE64
:10133000611AC1F3080182EEA12A01EE901AF8EEBB
:10134000611A40EE811A71EE800A62EE200A14E002
:1013500001EE901A1168DFED2D2AF8EE611AC1F343
:10136000080182EEA12A01EE901AF8EE611A40EE11
:10137000811A71EE800A62EE200A1168C1F34621DB
:1013800001EE101AB8EE411A31EE001AC0EE811AC1
:10139000BCEEE11A00E022E080ED001A1168C1F312
:1013A000064101EE101AB8EE411A31EE001AC0EEF5
:1013B000811ABCEEE11A80ED011A1168C1F30661D1
:1013C00001EE101AB8EE411A31EE000A80EE801AD2
:1013D000BCEEC10A80ED020A5DF8044B70470021A3
:1013E0000160416081605DF8044B704728440258F9
:1013F0003C44025800000039384402580024744A22
:10140000004402580090D0030024744C20BCBE4B12
:1014100061494DF8044DDFF884C10B1D0A68096865
:101420001C68DCF800C002F00303C1F30551C4F3EB
:101430000022CCF3CC0C00291CFB02F200EE102A97
:10144000F8EE400A7DD09FED561A564AB7EE000AD4
:10145000CBB1DFED551A012B01D0022B4ED002EE9D
:10146000101A1168F8EE422AC1F3080181EEA22A8F
:1014700001EE901AF8EE611A40EE811A71EE800AC0
:1014800062EE200A4FE0494BD3F800C01CF0200F59
:101490001ED0DFF81CC11B6801EE901AC3F3C10116
:1014A0001368F8EE612A2CFA01F101EE901AC3F3E9
:1014B0000801F8EE611A81EEA22A01EE901AF8EE08
:1014C000611A40EE811A71EE800A62EE200A2AE06B
:1014D00001EE901A1168DFED372AF8EE611AC1F3B8
:1014E000080182EEA12A01EE901AF8EE611A40EE90
:1014F000811A71EE800A62EE200A14E001EE901A61
:101500001168DFED2D2AF8EE611AC1F3080182EEB1
:10151000A12A01EE901AF8EE611A40EE811A71EEDE
:10152000800A62EE200A1168C1F3462101EE101A0A
:10153000B8EE411A31EE001AC0EE811ABCEEE11A83
:1015400000E022E080ED001A1168C1F3064101EECF
:10155000101AB8EE411A31EE001AC0EE811ABCEE34
:10156000E11A80ED011A1168C1F3066101EE101A4B
:10157000B8EE411A31EE000A80EE801ABCEEC10AC4
:1015800080ED020A5DF8044B704700210160416064
:1015900081605DF8044B7047284402584444025867
:1015A00000000039404402580024744A00440258A4
:1015B0000090D0030024744C20BCBE4B2DE9F05F9A
:1015C000044600680025FF4FDFF8FC93C04310F08D
:1015D000006F2E4620D1606E58B1B0F5801F0DD03F
:1015E000B0F5001F10D0B0F5401F18BF012519D06D
:1015F00011E0386840F40030386013E0022104F153
:10160000080002F05BFD04E0022104F1280002F072
:10161000F7FD050006D02E462088C04310F4807FD9
:1016200009D025E0606ED9F8001021F4401108437C
:10163000C9F80000F0E7A06D052817D2DFE800F038
:1016400003080E141400386840F4003038600BE0D2
:10165000002104F1080002F031FD04E0002104F152
:10166000280002F0CDFD054655B100E001252E46CB
:101670002088DFF85883C04310F4806F09D032E02F
:10168000A06DD9F8001021F007010843C9F8000047
:10169000EEE7D4F8A400B0F5C00F22D008DC70B19A
:1016A000B0F5001F10D0B0F5800F14D0012519E05F
:1016B000B0F5000F18BFB0F5200FF7D111E0386872
:1016C00040F4003038600CE004F108004FF00001F5
:1016D00002F0F4FC04E0002104F1280002F090FD87
:1016E000054635B12E462088C04310F4006F0BD05C
:1016F00034E0D4F8A400D8F8001021F4600141EAE5
:101700000000C8F80000EEE7D4F8A800B0F1407F70
:1017100022D008DC70B1B0F1807F10D0B0F1007F32
:1017200014D0012519E0B0F1806F18BFB0F1A06F9F
:10173000F7D111E0386840F4003038600CE004F173
:1017400008004FF0000102F0B9FC04E0002104F1B0
:10175000280002F055FD054635B12E462068C043ED
:1017600010F0007F0BD022E0D4F8A800D8F80010C9
:1017700021F0E06141EA0000C8F80000EEE7E06C0B
:1017800098B1102806D0202809D0302818BF01258C
:101790000BD00BE0386840F40030386005E00221DF
:1017A00004F1080002F08AFC054635B12E46208877
:1017B000C04310F4805F08D02DE08548E16C0268DA
:1017C00022F0300211430160F1E7E06DB0F5005FF7
:1017D00019D005DC58B1B0F5805F0DD0012519E0B6
:1017E000B0F5405F18BFB0F5804FF7D111E0386811
:1017F00040F4003038600CE004F108004FF00001C4
:1018000002F05CFC04E0002104F1280002F0F8FC86
:10181000054635B12E462088C04310F4005F0AD03B
:101820002DE0E06DD9F8001021F4E04141EA00001C
:10183000C9F80000EFE7206EB0F5403F1DD008DC8E
:10184000D8B1B0F5803F0BD0B0F5003F0FD00125E7
:1018500014E0B0F5802F18BFB0F5A02FF7D10CE041
:1018600004F108004FF0010102F028FC04E001211E
:1018700004F1280002F0C4FC054635B12E4620884C
:10188000C04310F4804F0AD02EE0206ED9F800102B
:1018900021F4E02141EA0000C9F80000EFE7D4F8A4
:1018A000AC00B0F1405F1DD008DCD8B1B0F1805F72
:1018B0000BD0B0F1005F0FD0012514E0B0F1804FE4
:1018C00018BFB0F1A04FF7D10CE004F108004FF0C1
:1018D000010102F0F3FB04E0012104F1280002F011
:1018E0008FFC054635B12E462088C04310F4004FCA
:1018F0000BD022E0D4F8AC00D8F8001021F0E04181
:1019000041EA0000C8F80000EEE7E06E98B1B0F1DF
:10191000805F05D0B0F1005F18BF012505D00BE056
:10192000386840F40030386005E0012104F1080017
:1019300002F0C4FB054635B12E462068C04310F0C6
:10194000807F09D020E0E06ED9F8001021F04051EE
:101950000843C9F80000F0E7A06C98B1012806D050
:10196000022809D0032818BF01250BD00BE03868E6
:1019700040F40030386005E0022104F1080002F074
:101980009DFB054635B12E462068C04310F4800FFC
:1019900008D032E00E48A16C026822F00302114325
:1019A0000160F1E7DFF82CA0DAF8000040F4807065
:1019B000CAF80000FFF7E2FA8346DAF8000010F4F4
:1019C000807F09E02C440258504402585844025881
:1019D0004C440258004802580DD100BFFFF7CEFA20
:1019E000A0EB0B00642801D9032505E0DAF800001C
:1019F00010F4807FF2D045B12E462078DFF8F8A3AE
:101A0000C04310F0010F52D070E0FC48B4F8B010A1
:101A1000006801F4407100F4407088420CD0F7482F
:101A20000168026821F4407142F480320260026869
:101A300022F4803202600160D4F8B000B0F5807FFB
:101A400018D1FFF79BFA8246EC48016811F0020FAB
:101A500008BF41F2883B0DD1FFF790FAA0EB0A00D6
:101A6000584502D903252E46C7E7E448006810F020
:101A7000020FF1D0D4F8B0104FF440708843E04822
:101A80001CBF016821F47C5109D00160DB48B4F827
:101A9000B0100268C1F30B0111430160ADE7D94AF0
:101AA000036802EA111123F47C521143EDE7A06FA1
:101AB000182819D006DCB8B1082808D010280DD095
:101AC000012512E0202818BF2828F9D10CE004F1E4
:101AD00008004FF0010102F0F1FA04E0012104F1E5
:101AE000280002F08DFB054635B12E462078C04314
:101AF00010F0020F0AD021E0A06FDAF8001021F0F8
:101B0000380141EA0000CAF80000EFE7606F0628DC
:101B100012D2DFE800F00F03090F0F0F012104F1CB
:101B2000080002F0CBFA04E0012104F1280002F0E1
:101B300067FB054645B100E001252E462078C043ED
:101B400010F0040F0AD022E0606FDAF8001021F0E4
:101B5000070141EA0000CAF80000EFE7D4F890005E
:101B6000062812D2DFE800F00F03090F0F0F012142
:101B700004F1080002F0A2FA04E0012104F12800B7
:101B800002F03EFB054645B100E001252E462078D7
:101B9000C04310F0200F0BD02FE0D4F89000D8F8FD
:101BA000001021F0070141EA0000C8F80000EEE74C
:101BB000D4F88C00B0F1405F1DD008DCD8B1B0F192
:101BC000805F0BD0B0F1005F0FD0012514E0B0F1C1
:101BD000804F18BFB0F1A04FF7D10CE004F108001E
:101BE0004FF0000102F06AFA04E0022104F128003B
:101BF00002F006FB054635B12E462078C04310F0B2
:101C0000400F0BD02FE0D4F88C00DAF8001021F050
:101C1000E04141EA0000CAF80000EEE7D4F898007D
:101C2000B0F5406F1DD008DCD8B1B0F5806F0BD097
:101C3000B0F5006F0FD0012514E0B0F5805F18BF3C
:101C4000B0F5A05FF7D10CE004F108004FF00001FF
:101C500002F034FA04E0022104F1280002F0D0FA84
:101C6000054635B12E462078C04310F0800F0BD0CA
:101C70002FE0D4F89800D8F8001021F4E05141EAA0
:101C80000000C8F80000EEE7D4F89C00B0F5C04FA3
:101C90001DD008DCD8B1B0F5005F0BD0B0F5804F97
:101CA0000FD0012514E0B0F5004F18BFB0F5204F5C
:101CB000F7D10CE004F108004FF0000102F0FEF94A
:101CC00004E0022104F1280002F09AFA054635B139
:101CD0002E462078C04310F0080F0BD020E0D4F837
:101CE0009C00D8F8001021F4604141EA0000C8F8D7
:101CF0000000EEE7D4F88000B0F5805F07D1022144
:101D000004F1280002F07CFA002818BF0126D4F85C
:101D10008000DAF8001021F440510843CAF80000AE
:101D20002078C04310F0100F15D1D4F89400B0F50E
:101D3000807F07D1022104F1280002F061FA002817
:101D400018BF0126D4F89400D8F8001021F440718F
:101D50000843C8F800002068C04310F4002F19D1D0
:101D6000D4F8A00040B1B0F5803F0BD0B0F5003FF3
:101D700018BF01250CD00CE0002104F1080002F08E
:101D80009DF904E0022104F1280002F039FA054629
:101D900035B12E462068C04310F4802F0AD024E0CD
:101DA000D4F8A000D8F8001021F440310843C8F856
:101DB0000000EFE7D4F88400B0F5801F08D0B0F53C
:101DC000001F0AD0B0F5401F18BF01250BD00BE053
:101DD000386840F40030386005E0012104F1280043
:101DE00002F00EFA05467DB12E462068C04310F47D
:101DF000803F13D027E0000054440258704402583A
:101E000010440258CFFFFF00D4F88400DAF8001025
:101E100021F440110843CAF80000E6E7206D28B11C
:101E2000B0F5803F18BF012505D00BE0386840F4BD
:101E30000030386005E0022104F1080002F03EF9AC
:101E4000054635B12E462068C04310F0005F10D122
:101E500007E06E48216D026822F480321143016070
:101E6000F1E7022104F1280002F0CAF9002818BFA6
:101E700001262068C04310F4003F12D1E06F70B11A
:101E8000B0F5807F07D0B0F5007F1CBFB0F5407F74
:101E9000012504D004E0386840F4003038603DB1DA
:101EA0002E4620686FEA000010F4801F13D109E06D
:101EB000E06FDAF8001021F4407141EA0000CAF83E
:101EC0000000EEE7206FD9F8001021F0004141EA50
:101ED0000000C9F8000020686FEA000010F4001F3D
:101EE00008D1A06ED9F8001021F0807141EA0000FD
:101EF000C9F8000020686FEA000010F0804F0AD196
:101F00004348016821F4004101600168D4F8B4201D
:101F100041EA0201016020686FEA000010F0004F02
:101F200007D13A48616D026822F0405242EA01014D
:101F3000016020686FEA000010F4000F09D1D4F8A6
:101F40008800DAF8001021F4400141EA0000CAF8E4
:101F5000000020794FF000056FEA000000F001005A
:101F6000284307D1002104F1080002F0A7F8002857
:101F700018BF06462079C04300F00200284307D16D
:101F8000012104F1080002F099F8002818BF064664
:101F90002079C04300F00400284307D1022104F156
:101FA000080002F08BF8002818BF06462079C043CD
:101FB00000F00800284307D1002104F1280002F0B6
:101FC0001FF9002818BF06462079C04300F0100012
:101FD000284307D1012104F1280002F011F900285B
:101FE00018BF06462079C04300F02000284305D1E1
:101FF000022104F1280002F003F920B9002E04BFE9
:102000000020BDE8F09F0120BDE8F09F4C4402583D
:1020100010440258002804BF012070472DE9F05FEA
:10202000DFF85C9204468A46D9F8000000F00F0001
:1020300050450DD2D9F8000020F00F0040EA0A0008
:10204000C9F80000D9F8000000F00F0050457DD11C
:1020500020788C4D10F0040F0AD02069296801F017
:102060007001884204D9296821F070010843286072
:102070002078854E10F0080F0AD06069316801F0B1
:102080007001884204D9316821F070010843306042
:10209000207810F0100F0AD0A069316801F4E061D7
:1020A000884204D9316821F4E06108433060207827
:1020B00010F0200F0BD07548E169026802F0700241
:1020C000914204D9026822F0700211430160207825
:1020D00010F0020F0AD0E068296801F00F01884271
:1020E00004D9296821F00F0108432860207810F0F6
:1020F000010F45D06648A1682A6822F47062114336
:1021000029606168022926D0032929D000680129A5
:102110002BD010F0040F56D05E4F386820F0070027
:1021200008433860FEF72AFF39688046606801F08E
:102130003801B1EBC00F18BF41F2883B20D000BF7F
:10214000FEF71CFFA0EB0800584500E03BE010D96B
:102150000320BDE8F09F006810F4003FDCD132E0BE
:10216000006810F0007FD7D12DE010F4807FD3D12C
:1021700029E06068396801F03801B1EBC00FDFD1A8
:10218000207810F0020F0AD0E068296801F00F01F2
:10219000814204D9296821F00F0108432860D9F849
:1021A000000000F00F00504510D9D9F8000020F0D1
:1021B0000F0040EA0A00C9F80000D9F8000000F05A
:1021C0000F00504502D00120BDE8F09F207810F0AC
:1021D000040F0AD02069296801F07001814204D9F6
:1021E000296821F0700108432860207810F0080F5A
:1021F0000AD06069316801F07001814204D9316808
:1022000021F0700108433060207810F0100F0AD0E0
:10221000A069316801F4E061814204D9316821F498
:10222000E06108433060207810F0200F0BD0174891
:10223000E169026802F070028A4204D9026822F061
:1022400070021143016000F0E5F813492B682A6819
:10225000C3F3032302F00F02CB5C895C03F01F027F
:1022600001F01F01D0400D4A20FA01F111600C4924
:1022700008600C480068BDE8F05FFEF7BBBE0000D8
:1022800000200052184402581C44025820440258AE
:102290000044025810440258E2F9020810000020DD
:1022A0000C00002004000020DFF85CC03F2230B4A6
:1022B0000260164ADCF800C0131D0CF0070CC0F8D1
:1022C00004C0DFF84CC01C1D156805F470658560FE
:1022D000156805F00F05C560126802F07002026112
:1022E0001A6802F0700242611A6802F4E0628261C8
:1022F000226802F07002C261DCF8000000F00F00FA
:10230000086030BC7047000010440258184402585E
:102310000020005210B500F07DF80C4A0C490D4B1E
:102320001468D2F800C0C4F303220CF00F0C8A5CCE
:1023300011F80CC002F01F01074A20FA01F10CF05D
:102340001F0021FA00F01860116010BD18440258F7
:10235000E2F90208100000200C00002010B500F087
:1023600059F8104A1049114B1468D2F800C0C4F350
:1023700003220CF00F0C8A5C11F80CC002F01F0253
:10238000D0400CF01F0220FA02F21A60084B1860CD
:1023900008480068C0F30210085C00F01F0022FA31
:1023A00000F010BD18440258E2F9020810000020A5
:1023B0000C0000201C44025810B500F02BF8104A05
:1023C0001049114B1468D2F800C0C4F303220CF07A
:1023D0000F0C8A5C11F80CC002F01F02D0400CF008
:1023E0001F0220FA02F21A60084B186008480068C1
:1023F000C0F30220085C00F01F0022FA00F010BDBC
:1024000018440258E2F90208100000200C000020D5
:102410001C4402585E4930B45E4809685E4B11F0B6
:1024200038020CD00111082A06D0102A02BF5B48DE
:1024300030BC7047182A0ED030BC08467047196867
:1024400011F0200F04BF30BC7047196830BCC1F3D5
:10245000C101C84070475249524C01F1040C0A684E
:102460000968DCF80050246802F0030C05F0010252
:10247000C1F30511C4F3CC04002914FB02F200EEF1
:10248000102AF8EE400A02BF002030BC7047BCF1B1
:10249000000F9FED451A454AB7EE000A1BD0DFED4D
:1024A000441ABCF1010F02D0BCF1020F4AD002EE77
:1024B000101A1068F8EE422AC0F3080081EEA22A32
:1024C00001EE900AF8EE611A40EE811A31EE800AB0
:1024D00022EE000A4BE0D3F800C01CF0200F1BD006
:1024E0001B6801EE901A1168C3F3C103F8EE612A6C
:1024F000D84001EE900AC1F30800F8EE611A81EEAF
:10250000A22A01EE900AF8EE611A40EE811A31EE2D
:10251000800A22EE000A2AE001EE901A1068DFED30
:10252000252AF8EE611AC0F3080082EEA12A01EE16
:10253000900AF8EE611A40EE811A31EE800A22EE1E
:10254000000A14E001EE901A1068DFED1B2AF8EE85
:10255000611AC0F3080082EEA12A01EE900AF8EE9B
:10256000611A40EE811A31EE800A22EE000A1068EC
:1025700030BCC0F34620401C00EE900AF8EE600A22
:1025800080EE201ABCEEC10A10EE100A704700005F
:10259000104402580090D0030044025840787D0156
:1025A000284402583444025800000039304402588C
:1025B0000024744A0024744C20BCBE4B002804BF85
:1025C000012070472DE9F04704460078FD4FDFF801
:1025D000F89310F0010FFD4D58D03868D9F800106D
:1025E00000F03800102819D0182804BF01F00300AB
:1025F000022813D06068B0F5803F04BF286840F41B
:10260000803014D010B1B0F5A02F1BD0286820F472
:1026100080302860286820F4802008E0286810F4C2
:10262000003F33D06068002800F0A4822EE02860CC
:102630006068D0B1FEF7A2FC0646286810F4003F9F
:1026400008D023E0286840F480202860286840F4FF
:102650008030ECE7FEF792FC801B642800F2D78103
:10266000286810F4003FF5D010E0FEF787FC06461E
:10267000286810F4003F09D0FEF780FC801B642816
:1026800000F2C581286810F4003FF5D1207810F0E1
:10269000020F67D03868DFF83883D9F8001010F0DF
:1026A000380014D0182808BF11F0030F0FD0E068CD
:1026B000B0B3296821F0190141EA00002860FEF753
:1026C0005DFC0646286810F0040F2AD01EE028683A
:1026D00010F0040F03D0E068002800F04B82E1689E
:1026E000286820F0190008432860FEF747FC0646DA
:1026F000286810F0040F09D1FEF740FC801B022867
:1027000000F28581286810F0040FF5D0207CD8F8FD
:10271000001021F0FE4141EA0060C8F8000021E00D
:102720000AE0FEF72BFC801B022800F2708128686B
:1027300010F0040FF5D0E9E7286820F001002860C8
:10274000FEF71CFC0646286810F0040F0AD000BFF4
:10275000FEF714FC801B022800F25981286810F053
:10276000040FF5D1207810F0100F4ED03868DFF844
:102770006482D9F8001000F03800082814D0182816
:1027800004BF01F0030001280ED0E069002828688A
:1027900027D040F080002860FEF7F0FB064628684E
:1027A00010F4807F13D007E0286810F4807F1CBFEE
:1027B000E069802840F0DE8194F82000D8F800100D
:1027C00021F07C5141EA0060C8F800001DE0FEF7EE
:1027D000D5FB801B02287CD8286810F4807FF6D0B7
:1027E000EAE720F080002860FEF7C8FB064628686C
:1027F00010F4807F09D000BFFEF7C0FB801B0228C9
:1028000067D8286810F4807FF6D1207810F0080F80
:102810002ED0714E60690028306814D040F001005D
:102820003060FEF7ABFB8046306810F0020F1FD11E
:10283000FEF7A4FBA0EB080002284AD8306810F08D
:10284000020FF5D014E020F001003060FEF796FB97
:102850008046306810F0020F0AD000BFFEF78EFBF2
:10286000A0EB0800022834D8306810F0020FF5D130
:10287000207810F0200F2AD0A0690028286813D0F3
:1028800040F480502860FEF779FB0646286810F473
:10289000005F1CD1FEF772FB801B022819D8286844
:1028A00010F4005FF6D012E020F480502860FEF7AC
:1028B00065FB0646286810F4005F08D0FEF75EFB53
:1028C000801B022805D8286810F4005FF6D1207814
:1028D00000E089E010F0040F64D0404E306840F40E
:1028E00080703060FEF74AFB8046306810F4807FCD
:1028F0000AD100BFFEF742FBA0EB0800642873D8A2
:10290000306810F4807FF5D0A068DFF8D48001280B
:1029100004BFD8F8000040F001000CD008B1052831
:1029200018D0D8F8000020F00100C8F80000D8F84E
:10293000000020F00400C8F80000A06841F2883AC6
:10294000F0B1FEF71BFB0646D8F8000010F0020FAE
:102950000BD027E0D8F8000040F00400C8F80000D1
:10296000D8F8000040F00100E5E7FEF707FB801B08
:1029700050454CD8D8F8000010F0020FF5D011E007
:10298000FEF7FCFA0646D8F8000010F0020F09D056
:10299000FEF7F4FA801B504539D8D8F8000010F043
:1029A000020FF5D1606A00287ED0DFF838A03968C0
:1029B0000AF1040801F038011829AAF1040774D0BB
:1029C000022812E0104402582844025800440258D9
:1029D000044402580C4402587444025800480258F7
:1029E000704402583044025811E0286820F080708A
:1029F00028600FD0FEF7C2FA0446286810F0007F66
:102A000052D000BFFEF7BAFA001B02287ED903207D
:102A1000BDE8F087FEF7B2FA0646286810F0007F9E
:102A200009D000BFFEF7AAFA801B0228EFD8286859
:102A300010F0007FF6D1E16AD9F80000A26A20F018
:102A4000F30020F4407040EA01101043C9F8000080
:102A500094F834004FF4FE02238E1102B4F838C00B
:102A60004FEA402994F83C60581EACF10103A6F1EE
:102A7000010CA9F5007606F47E46C0F30800304349
:102A800002EA0342104301EA0C610843CAF800005D
:102A9000386820F001003860D8F80000A16C6FF3AE
:102AA000CF0040EAC10001E087E03BE0C8F8000049
:102AB0003968206C21F00C01084338603868616C7B
:102AC00020F0020008433860386840F480303860F5
:102AD000386840F400303860386840F4802038604E
:102AE000386840F001003860286840F08070286045
:102AF000FEF744FA0446286810F0007F5DD100BF5D
:102B0000FEF73CFA001B022881D800E004E02868A8
:102B100010F0007FF4D050E0286810F0007F7FF4C0
:102B200071AF4AE0D9F800100128DAF8000021D08E
:102B3000A26A01F0030393421CD1E26AC1F30511BA
:102B40008A4217D1216BC0F30802491E8A4211D173
:102B5000616BC0F34622491E91420BD1A16BC0F3B9
:102B60000642491E914205D1E16BC0F30660491E41
:102B7000814202D00120BDE8F087A16CD8F80000A6
:102B8000C0F3CC00814218D0386820F001003860D2
:102B9000FEF7F4F94FEA0005FEF7F0F9A842FBD082
:102BA000A06CD8F800106FF3CF0141EAC000C8F85C
:102BB0000000386840F0010038600020BDE8F08770
:102BC000704700002DE9F0470446006800210269C3
:102BD0004369D0F8089094F8816013F4006F00F115
:102BE000300702EA030518BF12F0080F08D0816908
:102BF00041F400618161204600F095FABDE8F0875C
:102C000015F0600F09D115F0040F06D0616F204652
:102C10008847216F20468847012105F0450001289B
:102C200026D005F0260002282BD0002918BFBDE8C9
:102C3000F08715F0080F4FF0010871D02068816906
:102C400041F0080181612068816941F010018161D2
:102C50002068816941F4006181612068016921F087
:102C6000080101612068806810F4404F0ED034E004
:102C7000216F2046884705F02600022818BFBDE8CE
:102C8000F0872046616FBDE8F0470847B4F86A0056
:102C900018B3E0680F2807D92068616E006B0860E0
:102CA000606E001D60660FE0072805D93888616EE8
:102CB0000880606E801C06E02068616E90F830002D
:102CC0000870606E401C6066B4F86A00401EA4F88C
:102CD0006A00B4F86A000028DBD1204601F038FB16
:102CE00084F88180D4F8840020B12046FFF768FF83
:102CF000BDE8F087052E08D0042E0BD0032E04BFAC
:102D0000204600F04FFBBDE8F087204600F04BFB6B
:102D1000BDE8F087204600F005FABDE8F087FFE740
:102D200015F4587F08BFBDE8F08715F0400F0AD0B2
:102D3000D4F8840040F00400C4F88400206881695D
:102D400041F04001816115F4007F0AD0D4F884007D
:102D500040F00100C4F884002068816941F40071EA
:102D6000816115F4807F0AD0D4F8840040F0080017
:102D7000C4F884002068816941F48071816115F094
:102D8000200F0AD0D4F8840040F08000C4F88400FA
:102D90002068816941F020018161D4F88400002815
:102DA00008BFBDE8F0874FF440412068026831EA6F
:102DB000090322F0010101602068016921F06B0123
:102DC00021F44071016106D084F881802046FFF72C
:102DD000F7FEBDE8F0872068134D816821F440417B
:102DE0008160E06F50B10565E06FFDF765FE28B1C9
:102DF000D4F8840040F04000C4F88400A06F00289C
:102E000008BFBDE8F0870565A06FFDF755FE0028F7
:102E100008BFBDE8F087D4F8840040F04000C4F853
:102E20008400BDE8F087000017440008002804BFB4
:102E3000012070472DE9F047044600685E4A0025EE
:102E40005E4BDFF87CC19042A56218BF984204D067
:102E500060451CBFE1680F2919D8E1680126E76BBE
:102E6000904201F1080806EB57114FEAD80707FB1B
:102E700001F118BF984203D0604518BF082906D851
:102E800090421CBF9842604504D1102902D901200C
:102E9000BDE8F08794F8810020B9204684F880507E
:102EA00000F090F8022084F881002068016821F089
:102EB000010101602068A1698268B1F1806F02F4AC
:102EC000F81110D16268B2F5800F06D0002A04BF55
:102ED000A26BB2F1805F02D005E0A26B1AB9026862
:102EE00042F480520260606810F4800F09D0E068FC
:102EF000072806D32068226D036823F480731A43E1
:102F000003E02068026822F480720260A36AE0692C
:102F1000E26B27681843D4F80CC01143084340EA19
:102F20000C00B860626AD4E90D03216940EA020727
:102F3000226AD4E9050CD4F800A043EA0C0847EA59
:102F4000080949EA0101D4F858900843D4E9013747
:102F5000D4E9128C1043184340EA0C00384340EA8D
:102F6000080040EA0900CAF80C00606868B92068E7
:102F7000816821F4C05141F400618160206881685A
:102F800021F4C06141F4806181602068016D21F00D
:102F900001010165606810F4800F06D02068616D42
:102FA000C26822F000421143C160C4F8845084F822
:102FB00081600020BDE8F08700300140003800400B
:102FC000003C00402DE9F043B5B0044600256846BA
:102FD000B8212E952F95309531953295FDF766FCE9
:102FE00020684FF002074A4E4FF00509494CA0F106
:102FF0008041B1F59A314FF0010834D0A0F1804101
:10300000B1F5A8311CBF35B0BDE8F0834FF40051D5
:1030100000201895CDE900106846FEF7CFFA002889
:1030200018BFFDF737FD306840F48010306030681D
:1030300000F480103390206840F020002060206869
:103040002EA9CDE9305800F0200033904FF43070B5
:10305000CDF8C890CDE92E072F4800BFFDF776FECA
:1030600035B0BDE8F083002018954FF40051CDE94C
:1030700000106846FEF7A2FA002818BFFDF70AFD07
:10308000306840F400503060306800F400503390F5
:10309000206840F010002060206800F0100033909D
:1030A000206840F040002060206800F0400033902D
:1030B000206840F04000206020680321CDF8C890CF
:1030C00000F0400033905420CDE93051CDE92E0777
:1030D00012482EA9FDF73AFE002205215420FEF7E2
:1030E0003FF85420FEF72CF80D4C4FF48050CDE9FA
:1030F0002E08CDE930752EA92046FDF727FE4FF4A6
:1031000000402E90CDE92F852EA920463195A5E7C8
:10311000F0440258E04402580014025800100258CB
:1031200000180258704770472DE9F05F04460068A8
:103130001D46924600F120098B46FDF71FFF06460B
:1031400094F88100012842D1BBF1000F18BFBAF1F9
:10315000000F00F0248194F88000012837D0A16886
:1031600000274FF0010884F88080032084F8810054
:10317000C4F88470B1F5C02FC4F85CB06766A4F8D9
:10318000687067672767A4F860A0A4F862A0A4F835
:103190006A70206803BF016841F400610160C16882
:1031A0001EBF21F4C02141F40031C1602068416894
:1031B0006FF30F0141EA0A0141602068016841F0A4
:1031C000010101606068B0F5800F08D102E00220C3
:1031D000BDE8F09F2068016841F400710160E0687B
:1031E0000F2824D9B4F86200002856D0206841691D
:1031F00011F0020F0BD0E16D09680162E06D001D56
:10320000E065B4F86200401EA4F862000AE0FDF731
:10321000B5FE801BA84203D3B5F1FF3F75D101E095
:10322000002D72D0B4F862000028DFD17DE00728BD
:10323000B4F8620032D9002877D02068416911F0D3
:10324000020F1CD0B4F8621001290BD9E16B49B10F
:10325000E16D09680162E06D001DE065B4F862008F
:10326000801E09E0E06D0088A9F80000E06D801C78
:10327000E065B4F86200401EA4F8620009E0FDF7C2
:103280007DFE801BA84203D3B5F1FF3F5DD100E076
:10329000DDB3B4F862000028CFD146E0B0B32068B7
:1032A000416911F0020F32D0B4F86210032984BFD3
:1032B000E16B40290BD9E16D09680162E06D001DE9
:1032C000E065B4F86200001FA4F8620029E0B4F8D9
:1032D000621001290CD9E16B51B1E06D0088A9F8A9
:1032E0000000E06D801CE065B4F86200801E09E01B
:1032F000E16D097880F82010E06D401CE065B4F8BD
:103300006200401EA4F862000BE01EE00DE0FDF735
:1033100035FE801BA84203D3B5F1FF3F15D100E075
:103320009DB1B4F862000028B9D1206840694FF01F
:10333000080939EA000025D0FDF720FE801B8542F0
:1033400013D8B5F1FF3F17D110E0204601F000F887
:10335000D4F8840084F8807040F48070C4F884004D
:1033600084F881800320BDE8F09F2DB1206840697A
:1033700039EA0000E0D105E0D4F8840040F02000F4
:10338000C4F88400204600F0E3FF84F88180D4F87C
:10339000840084F88070002808BFBDE8F09F0120F9
:1033A000BDE8F09F7047704770477047704700282E
:1033B00004BF0120704710B5044690F83D0028B9BD
:1033C000002084F83C00204600F022F8022084F817
:1033D0003D002068211D01F0F9FC012084F848001F
:1033E00084F83E0084F83F0084F8400084F84100EF
:1033F00084F8420084F8430084F8440084F84500CF
:1034000084F8460084F8470084F83D00002010BD91
:103410007047000090F83D1001291CBF0120704743
:10342000022180F83D100168CB6843F00103CB60B6
:103430000068A0F18042B2F5803218BFB0F1804F31
:103440002DD0A0F18041B1F580611CBFA0F1804179
:10345000B1F5006123D0A0F18041B1F540611CBFFE
:10346000A0F18041B1F5823119D0A0F18041B1F5D0
:10347000C0511CBFA0F18041B1F5A0310FD0A0F127
:103480008041B1F560411CBFA0F18041B1F56441BC
:1034900005D0016841F0010101600020704781689A
:1034A000034A1140062918BFB1F5803FF5D0F0E777
:1034B0000700010070472DE9F0410446006800272D
:1034C000C668056915F0020F18BF16F0020F13D079
:1034D00001216FF00202026121772068806910F0FB
:1034E000030F204602D0FFF7E5FF04E000F099F853
:1034F000204600F097F8277715F0040F18BF16F054
:10350000040F14D0226802206FF0040111612077AB
:103510002068806910F4407F204602D0FFF7CAFF80
:1035200004E000F07EF8204600F07CF8277715F0E4
:10353000080F18BF16F0080F14D0226804206FF08F
:103540000801116120772068C06910F0030F204640
:1035500002D0FFF7AFFF04E000F063F8204600F070
:1035600061F8277715F0100F18BF16F0100F14D060
:10357000226808206FF01001116120772068C0696F
:1035800010F4407F204602D0FFF794FF04E000F0E3
:1035900048F8204600F046F8277715F0010F18BFCD
:1035A00016F0010F06D021686FF001000861204677
:1035B00000F039F815F4025F18BF16F0800F06D03E
:1035C00021686FF4025008612046FFF7EEFE15F403
:1035D000807F18BF16F0800F06D021686FF48070CE
:1035E00008612046FFF7E0FE15F0400F18BF16F007
:1035F000400F06D021686FF040000861204600F0BF
:103600001BF815F0200F14BF16F0200FBDE8F08155
:103610006FF02000216808612046BDE8F041FFF707
:10362000C5BE704770470068A0F18041B1F5803198
:1036300018BF7047FDF7A8BC704790F884100129A7
:1036400004BF022070474DF8044D012280F8842009
:1036500024214FF0200C0022C0F8881001680B686C
:103660000C6823F0005324F001040C6042660168EA
:103670000B60C0F888C080F8842010465DF8044BC9
:103680007047000090F88420012A04BF0220704790
:1036900030B4012280F884202423C0F888300368E5
:1036A000D3F800C01C6824F001041C6003689C6807
:1036B00024F0606421439960416E002908BFA0F89E
:1036C0006A2014D00168114B03F108048A688968E4
:1036D000C2F34262490F5D5C615C2D01B5FBF1F5FF
:1036E000A0F86A50995CA25C0901B1FBF2F2A0F863
:1036F0006820202203680021C3F800C0C0F8882099
:1037000080F88410084630BC70470000D2F90208E7
:1037100090F88420012A04BF0220704730B40122AF
:1037200080F884202423C0F888300368D3F800C0D0
:103730001C6824F001041C6003689C6824F0604449
:1037400021439960416E002908BFA0F86A2014D077
:103750000168114B03F108048A688968C2F3426268
:10376000490F5D5C615C2D01B5FBF1F5A0F86A5075
:10377000995CA25C0901B1FBF2F2A0F8682020225A
:1037800003680021C3F800C0C0F8882080F88410C6
:10379000084630BC70470000D2F90208002804BF78
:1037A0000120704710B50446D0F8880028B90020E1
:1037B00084F88400204600F029F82420C4F888000A
:1037C0002068016821F001010160A06A00281CBF87
:1037D000204601F069FB204601F030FC012808BFBB
:1037E00010BD2068416821F49041416020688168E3
:1037F00021F02A0181602068016841F00101016027
:103800002046BDE8104001F0BCBB000030B5B5B0AB
:10381000054600246846B8212E942F9430943194A4
:103820003294FDF743F82868A0F18041B1F5883162
:103830001CBF35B030BD012100201E94CDE9001021
:103840006846FDF7BBFE002818BFFDF723F91048B6
:10385000016841F010010160006800F01000339031
:103860000C48016841F00101016000680221072253
:1038700000F0010033904FF4C0602E90CDE92F147A
:1038800005482EA9CDE93142FDF760FA35B030BDCB
:10389000F0440258E0440258000002582DE9F84371
:1038A0000446D0F888001F4615460E4620281CBF47
:1038B0000220BDE8F883002E12BF002D0120BDE8D4
:1038C000F8834FF000014FF02100C4F89010C4F8C5
:1038D0008800FDF753FB8046A068A4F85450A4F874
:1038E0005650B0F5805F07BF206900283546002696
:1038F00008BF0025B4F856004FF02009E8B1434650
:103900004FF000024FF080012046009701F0AAFD21
:1039100008BB002D14BF15F8010B36F8020B216807
:1039200008BFC0F308008862B4F85600401EA4F82F
:103930005600B4F856000028E1D100224346402149
:103940002046009701F08EFD002802BFC4F8889041
:103950000020BDE8F883C4F888900320BDE8F88310
:10396000FEE700002DE9F05F044690F88000154660
:10397000884601284FF0000B04BF0220BDE8F09FED
:103980004FF0010984F88090FDF7F8FA074694F8A3
:103990008100002601281EBF022084F88060BDE857
:1039A000F09F032084F88100C4F88460A4F860507C
:1039B000A4F862506666A4F86860A4F86A6048EAF1
:1039C000084A666726672068016841F40061016063
:1039D000206841686FF30F0141602068016841F081
:1039E000010101606068B0F5800F04D120680168B2
:1039F00041F4007101604DB32068416911F0020F7C
:103A00000CD0012D06D9E16B00291CBFC0F820A005
:103A1000AD1E19D1A0F820806D1E15E0FDF7AEFA9D
:103A2000C01BB0F57A7F0FD3204600F0E1FAD4F83E
:103A3000840084F8806040F48070C4F8840084F8C6
:103A400081900120BDE8F09F002DD5D1206840690C
:103A50004FF480554FF47A7835EA000011D000BF5A
:103A6000FDF78CFAC01B804506D8D4F8840040F0DE
:103A70002000C4F8840004E02068406935EA0000B2
:103A8000EED12068016841F48061016020684FF444
:103A900000654FF47A78406935EA000011D000BF24
:103AA000FDF76CFAC01B804506D8D4F8840040F0BE
:103AB0002000C4F8840004E02068406935EA000072
:103AC000EED1204600F094FA2068816941F400614B
:103AD000816184F8806084F88190D4F884000028A3
:103AE00014BF01205846BDE8F09F00002DE9F843BF
:103AF000424E04462A201F469146884600228DF8F1
:103B000000004FF400413046FDF732FA3C480122F4
:103B10004FF47A736946FFF707FB3A4D0122D10350
:103B2000A87B04443046FDF723FA200A8DF80000F4
:103B3000334802224FF47A7369468DF80140FFF74B
:103B4000F3FAA87B012200EB09043046D103FDF70C
:103B50000FFA200A8DF80000294802224FF47A73E8
:103B600069468DF80140FFF7DFFA2B208DF8000041
:103B7000002230464FF40041FDF7FAF920480122B7
:103B80004FF47A736946FFF7CFFAE87B012200EB26
:103B900008043046D103FDF7EBF9200A8DF8000048
:103BA000174802224FF47A7369468DF80140FFF7F7
:103BB000BBFAE87B0122C4193046D103FDF7D8F9DE
:103BC000200A8DF800000E4802224FF47A736946ED
:103BD0008DF80140FFF7A8FA2C208DF80000002294
:103BE00030464FF40041FDF7C3F9054801224FF478
:103BF0007A736946FFF798FABDE8F883001802580F
:103C000078F2012068F201202DE9F843524C00259A
:103C1000524E36214FF4A0784FF0F007607260B337
:103C200002284FD0012872D0032818BFBDE8F883BE
:103C30008DF8001000224FF400413046FDF798F94E
:103C4000474801224FF47A736946FFF76DFA012263
:103C5000C0208DF80000D1033046FDF789F94048B7
:103C600001224FF47A736946FFF75EFAA573E57394
:103C7000A4F80A80A781BDE8F883002230468DF8B9
:103C800000104FF40041FDF773F9354801224FF45D
:103C90007A736946FFF748FA012270208DF8000018
:103CA000D1033046FDF764F92D4801224FF47A73B1
:103CB0006946FFF739FAA573E5736781A4F80C80AC
:103CC000BDE8F883002230468DF800104FF4004123
:103CD000FDF74EF9224801224FF47A736946FFF747
:103CE00023FA012230468DF80050D103FDF740F948
:103CF0001B4801224FF47A736946FFF715FAA57342
:103D0000E573A4F80A80A781BDE8F883FFE70022E5
:103D100030468DF800104FF40041FDF729F91048A6
:103D200001224FF47A736946FFF7FEF90122A020C1
:103D30008DF80000D1033046FDF71AF9084801223A
:103D40004FF47A736946FFF7EFF9A573E57367815E
:103D5000A4F80C80BDE8F88368F20120001802582E
:103D600078F2012070B501220C464D0006461A4833
:103D7000D103ADF5207DFDF7FBF81CB36FF001001A
:103D800014F0010FA6F10202684408D05188090A14
:103D90008DF8001012F8021F801C8DF801106108C8
:103DA00010D05388491E4FEA132C80F802C0C3700C
:103DB00032F8043F4FEA132C80F804C0437100F13D
:103DC0000400EED1AAB205484FF47A736946FFF7B2
:103DD000ABF90DF5207D70BD0018025878F2012076
:103DE000074A0021074810B525F000FA064C0021CB
:103DF000064A2060064825F0F9F9606010BD000011
:103E0000609A0408F14B0008CC010020849A040851
:103E1000A989000870B586B029480024009401944F
:103E2000029403940494016841F010010160016858
:103E300001F010010591016841F004010160016881
:103E400001F004010591016841F020010160016861
:103E500001F020010591016841F0800101600168D5
:103E600001F080010591016841F0010101600168E4
:103E700001F001010591016841F040010160006815
:103E80000022104E4FF4104100F0400005903046E3
:103E9000FDF76EF8012502212803CDE90214CDE9D2
:103EA000000569463046FCF751FFE8030090CDE974
:103EB0000154694630460394FCF748FF06B070BDD4
:103EC000E04402580018025870B516484FF48004B8
:103ED0000021134DE30107224FF4003CC0F808C055
:103EE000C0E90321C0E90513C1615A000162202322
:103EF00041628162C162C0E90D21C0E90F314164B4
:103F00008164C164016541658165C0E90054FEF7C3
:103F10008DFF002808BF70BDBDE87040FCF7BABD3A
:103F20000034014078F2012014484FF48023DFF878
:103F300048C0002110B50722C0F800C0C0E9011335
:103F4000C0E9032141618161016241628162C16214
:103F500041638163C163016441648164C16401653B
:103F600041658165FEF762FF002808BF10BDBDE80E
:103F70001040FCF78FBD00000050014000F301200D
:103F80001A480021DFF860C00C2210B54FF4E1336D
:103F9000C0F800C0C0E90131C160C0E9041281610C
:103FA000C161016241628162FFF7F8FB002818BF1E
:103FB000FCF770FD00210D48FFF7AAFB002818BF91
:103FC000FCF768FD00210948FFF75CFB002818BFDB
:103FD000FCF760FD0548FFF730FB002808BF10BD67
:103FE000BDE81040FCF756BD0010014088F30120E9
:103FF00002685169936943F0080393610268936909
:1040000043F0100393610268136823F00103136007
:104010000268136923F06F0323F44073136102688D
:10402000936823F44043936090F88120042A18BFDA
:1040300011F0200F0AD0D0F8842042F08002C0F89E
:1040400084200268936943F02003936190F88120F3
:10405000032A18BF11F0400F0AD0D0F8842042F094
:104060000402C0F884200268936943F0400393611E
:1040700011F4007F0AD0D0F8842042F00102C0F889
:1040800084200268936943F40073936111F4807F84
:104090000AD0D0F8841041F00801C0F884100168FB
:1040A0008A6942F480728A614FF00001A0F86210C0
:1040B000A0F86A107047FEE7FEE700002DE9F04720
:1040C000DFF82C918846044603200027D9F8001019
:1040D000884304BF0120BDE8F087464E306820F0D9
:1040E00080603060FCF74AFF0546306810F0006FD2
:1040F00009D000BFFCF742FF401B02286DD8306892
:1041000010F0006FF6D12068D9F8001021F47C314E
:1041100041EA0030C9F800004FF4FE010A0294F8A9
:1041200008C0A588B4F80C9094F810A06D1E4FEA52
:104130004C2C314BACF5007C3048A9F101090CF452
:104140007E4CAAF1010AC5F3080501EA09414CEACF
:10415000050C02EA0A624CEA010111431960026887
:10416000616922F0C002114301600168A26921F077
:1041700020010A430260191D026822F01002026049
:104180000A68E3696FF3CF0242EAC3020A6001687A
:10419000B8F1000F41F01001016014D00168B8F1CE
:1041A000010F0CBF41F4801141F40011016030682F
:1041B00040F080603060FCF7E1FE0446306810F0AB
:1041C000006F05D010E0016841F400210160EEE7C6
:1041D000FCF7D4FE001B022802D90320BDE8F087BB
:1041E000306810F0006FF3D03846BDE8F08700006B
:1041F0002844025800440258384402582C440258BB
:104200002DE9F047DFF82C9188460446032000276B
:10421000D9F80010884304BF0120BDE8F087464E5E
:10422000306820F080503060FCF7A8FE054630680A
:1042300010F0005F09D000BFFCF7A0FE401B022871
:104240006DD8306810F0005FF6D12088D9F80010E2
:1042500021F07C7141EA0050C9F800004FF4FE01E2
:104260000A0294F808C0A588B4F80C9094F810A03D
:104270006D1E4FEA4C2C314BACF5007C3048A9F157
:1042800001090CF47E4CAAF1010AC5F3080501EA04
:1042900009414CEA050C02EA0A624CEA01011143A9
:1042A00019600268616922F440621143016001688B
:1042B000A26921F400710A430260191D026822F408
:1042C000807202600A68E3696FF3CF0242EAC302B8
:1042D0000A600168B8F1000F41F48071016014D0E8
:1042E0000168B8F1010F0CBF41F4000141F0807189
:1042F0000160306840F080503060FCF73FFE0446BB
:10430000306810F0005F05D010E0016841F48001D2
:104310000160EEE7FCF732FE001B022802D9032001
:10432000BDE8F087306810F0005FF3D03846BDE894
:10433000F0870000284402580044025840440258C4
:104340002C4402580148FEF73DBC000078F20120E1
:1043500002685169936943F00803936102689369A5
:1043600043F0100393610268136823F001031360A4
:104370000268136923F06F0323F44073136102682A
:10438000936823F44043936090F88120042A18BF77
:1043900011F0200F0AD0D0F8842042F08002C0F83B
:1043A00084200268936943F02003936190F8812090
:1043B000032A18BF11F0400F0AD0D0F8842042F031
:1043C0000402C0F884200268936943F040039361BB
:1043D00011F4007F0AD0D0F8842042F00102C0F826
:1043E00084200268936943F40073936111F4807F21
:1043F0000AD0D0F8841041F00801C0F88410016898
:104400008A6942F480728A614FF00001A0F862105C
:10441000A0F86A10704710B5806B00210122A0F847
:104420006A10A0F8621080F88120FEF7C9FB10BD69
:104430002DE9F84FFFF748FD0A20FCF773FC362002
:104440008DF80000FF4800224FF40041FCF790FD7A
:10445000FD4801224FF47A736946FEF765FE01229A
:10446000F84800248DF80040D103FCF781FDF648A0
:1044700001224FF47A736946FEF756FE3A208DF812
:104480000000F04800224FF40041FCF771FDEE48B7
:1044900001224FF47A736946FEF746FE0122052099
:1044A0008DF80000E748D103FCF762FDE6480122E1
:1044B0004FF47A736946FEF737FEB2208DF800009C
:1044C000E04800224FF40041FCF752FDDE48012293
:1044D0004FF47A736946FEF727FE0122D9480C256E
:1044E0008DF80050D103FCF743FDD74801224FF46B
:1044F0007A736946FEF718FE0122D2488DF8005003
:10450000D103FCF735FDD04801224FF47A73694698
:10451000FEF70AFE0122CB488DF80040D103FCF7DC
:1045200027FDC94801224FF47A736946FEF7FCFD66
:10453000012233208DF80000C248D103FCF718FD9A
:10454000C14801224FF47A736946FEF7EDFD01225E
:1045500033208DF80000BB48D103FCF709FDBA48B1
:1045600001224FF47A736946FEF7DEFDB7208DF81D
:104570000000B44800224FF40041FCF7F9FCB248B7
:1045800001224FF47A736946FEF7CEFD01223520F1
:104590008DF80000AB48D103FCF7EAFCAA480122E1
:1045A0004FF47A736946FEF7BFFDBB208DF800001B
:1045B000A44800224FF40041FCF7DAFCA248012293
:1045C0004FF47A736946FEF7AFFD012219208DF88A
:1045D00000009C48D103FCF7CBFC9B4801224FF420
:1045E0007A736946FEF7A0FDC0208DF8000095485B
:1045F00000224FF40041FCF7BBFC934801224FF42A
:104600007A736946FEF790FD01222C208DF8000098
:104610008C48D103FCF7ACFC8B4801224FF47A7331
:104620006946FEF781FDC2208DF800008548002212
:104630004FF40041FCF79CFC834801224FF47A734D
:104640006946FEF771FD01208DF800000246C103A6
:104650007C48FCF78DFC7C4801224FF47A73694654
:10466000FEF762FDC3208DF80000764800224FF46B
:104670000041FCF77DFC744801224FF47A736946CF
:10468000FEF752FD012212208DF800006D48D10383
:10469000FCF76EFC6C4801224FF47A736946FEF712
:1046A00043FDC4208DF80000664800224FF400410D
:1046B000FCF75EFC644801224FF47A736946FEF70A
:1046C00033FD20208DF80000012281025D48FCF7B7
:1046D0004FFC5D4801224FF47A736946FEF724FDD2
:1046E000C6208DF80000574800224FF40041FCF727
:1046F0003FFC554801224FF47A736946FEF714FDDA
:1047000001220F208DF800004E48D103FCF730FC49
:104710004D4801224FF47A736946FEF705FD49487A
:10472000D02600228DF800604FF40041FCF720FCF9
:10473000454801224FF47A736946FEF7F5FC0122E1
:10474000A4208DF800003F48D103FCF711FC3E483F
:1047500001224FF47A736946FEF7E6FC0122A1209C
:104760008DF800003748D103FCF702FC36480122DF
:104770004FF47A736946FEF7D7FCE0208DF800000D
:10478000304800224FF40041FCF7F2FB2E48012292
:104790004FF47A736946FEF7C7FC012229488DF869
:1047A0000060D103FCF7E4FB274801224FF47A7341
:1047B0006946FEF7B9FC04208DF800000122410390
:1047C0002048FCF7D5FB204801224FF47A73694654
:1047D000FEF7AAFC01221B484FF00D088DF800805F
:1047E000D103FCF7C5FB184801224FF47A736946E0
:1047F000FEF79AFC0122134811278DF80070D103AF
:10480000FCF7B6FB104801224FF47A736946FEF7B5
:104810008BFC01220B484FF013098DF80090D10357
:10482000FCF7A6FB084801224FF47A736946FEF7AD
:104830007BFC01222B208DF800000248D103FCF7FD
:1048400097FB03E00018025878F20120E3480122A8
:104850004FF47A736946FEF767FC0122E0484FF097
:104860003F0A8DF800A0D103FCF782FBDB48012250
:104870004FF47A736946FEF757FC012254208DF8F5
:104880000000D748D103FCF773FBD44801224FF452
:104890007A736946FEF748FC01224C208DF800002F
:1048A000CF48D103FCF764FBCC4801224FF47A7364
:1048B0006946FEF739FC012218208DF80000C8482F
:1048C000D103FCF755FBC54801224FF47A736946C2
:1048D000FEF72AFC0122C2488DF80080D103FCF7C4
:1048E00047FBBE4801224FF47A736946FEF71CFC71
:1048F00001220B208DF80000B948D103FCF738FBEA
:10490000B64801224FF47A736946FEF70DFC012286
:10491000B3484FF01F088DF80080D103FCF728FB47
:10492000AE4801224FF47A736946FEF7FDFB01227F
:10493000AB484FF0230B8DF800B0D103FCF718FB08
:10494000A64801224FF47A736946FEF7EDFBE12099
:104950008DF80000A24800224FF40041FCF708FB4C
:104960009E4801224FF47A736946FEF7DDFB01226F
:104970009B488DF80060D103FCF7FAFA97480122B2
:104980004FF47A736946FEF7CFFB04208DF80000E0
:10499000012241039248FCF7EBFA904801224FF4C0
:1049A0007A736946FEF7C0FB01228D488DF80050EE
:1049B000D103FCF7DDFA894801224FF47A73694686
:1049C000FEF7B2FB012286488DF80070D103FCF798
:1049D000CFFA824801224FF47A736946FEF7A4FBAE
:1049E00001227F488DF80090D103FCF7C1FA7B4883
:1049F00001224FF47A736946FEF796FB01222C20C0
:104A00008DF800007648D103FCF7B2FA7348012212
:104A10004FF47A736946FEF787FB012270488DF8E0
:104A200000A0D103FCF7A4FA6C4801224FF47A737A
:104A30006946FEF779FB012244208DF800006848A2
:104A4000D103FCF795FA654801224FF47A73694661
:104A5000FEF76AFB012251208DF800006048D10367
:104A6000FCF786FA5D4801224FF47A736946FEF737
:104A70005BFB01222F208DF800005948D103FCF781
:104A800077FA564801224FF47A736946FEF74CFBD9
:104A9000012253488DF80080D103FCF769FA4F4892
:104AA00001224FF47A736946FEF73EFB01224C481F
:104AB0008DF80080D103FCF75BFA484801224FF4DF
:104AC0007A736946FEF730FB20208DF80000012242
:104AD00081024348FCF74CFA404801224FF47A73B4
:104AE0006946FEF721FB01223D488DF800B0D10355
:104AF000FCF73EFA394801224FF47A736946FEF713
:104B000013FB21208DF80000354800224FF40041AE
:104B1000FCF72EFA314801224FF47A736946FEF70A
:104B200003FB2F4800224FF400418DF80070FCF782
:104B30001FFA2A4801224FF47A736946FEF7F4FA05
:104B40007820FCF7EFF829208DF800002448002297
:104B50004FF40041FCF70CFA204801224FF47A731D
:104B60006946FEF7E1FA0220FFF74EF81D481D499D
:104B700044604FF6FF70086008464A898089411EEC
:104B80008BB2501E82B200210846FEF7AFFF012211
:104B90001348D103FCF7ECF9104D0F20E8602846CC
:104BA000FEF744F90F4841898289808801FB02F2AF
:104BB00081B22846FEF7D6FE0720E8602846FEF7B9
:104BC00035F90A49012208480860110305480472B2
:104BD000BDE8F84F0248FCF7CBB9000078F201209D
:104BE0000018025868F20120500900245C090024D2
:104BF0004FF47A7029F068FEFAE74FF0E02010B524
:104C000000692AF035FC012808BF10BDBDE810403E
:104C10002AF084B870B59CB04C216846FBF746FE7C
:104C2000002414941594022016941794189419943F
:104C30001A941B94FCF7D6FA1E48016821F44041EF
:104C40000160016801F440411391016811F4005FB3
:104C5000FBD040254FF00C0C022000900121CDE943
:104C60000315CDE909042223CDE90D10CDE90F0C80
:104C70004FF4406668460422CDE90B23CDE9114686
:104C8000FDF79CFC08B172B6FEE7082216940321DA
:104C9000D301CDE917253F20CDE91953CDE9140102
:104CA00014A81B95FDF7B6F9002804BF1CB070BD11
:104CB00072B6FEE718480258344870B4344A0168A6
:104CC00041F470010160106800F00F00072805D260
:104CD000106820F00F0040F0070010602D49002000
:104CE000DFF8B4C00C682D4B44F001040C60CCF824
:104CF0000000D1F800C00CEA03030B60136803F056
:104D00000F03072B05D9136823F00F0343F00703A4
:104D10001360244B224ADFF890C01E1D341D18601A
:104D2000224D234B30602E1D2060341DC5F800C07D
:104D300004F1040C33600CF1040322601C1D251DDA
:104D4000CCF8000005F1040C1A6020602A60CCF851
:104D500000000B68174ADFF860C023F480230B6063
:104D6000CCF80000106810F4805F1CBF70BC704766
:104D700043F2D2001368114943F480531360086072
:104D8000106820F48050106070BC704788ED00E01F
:104D90000020005200440258104402587FEDF6EA09
:104DA00080020101184402580002020228440258FD
:104DB0000000FF01D44402586044025800400052F1
:104DC0000148FEF778BB000070D300242DE9F00302
:104DD0002D4B2E4C2E4D984202682E4EDFF8B8C057
:104DE00018BFB0F1804F07D0A04218BFA84203D02F
:104DF000B04218BF604504D14F6822F0700247EA04
:104E00000202264FDFF898809842DFF8989018BF8A
:104E1000B0F1804F16D0A04218BFA84212D0B042C5
:104E200018BF60450ED0B84218BF40450AD048456B
:104E30001FBFA0F18044B4F56044A0F18044B4F5F4
:104E4000644403D1CC6822F4407222438D684C69DB
:104E500022F08002C5620D6822439842856218BF25
:104E6000604504D0B8421CBF4045484501D109699E
:104E7000016303684FF0010143F0040303604161E3
:104E80000260BDE8F00370470000014000040040EC
:104E900000080040000C00400004014000400140B8
:104EA000004401400048014090F8281011F0080F1C
:104EB00006D00168826B4B6823F400431A434A60B2
:104EC00090F8281011F0010F06D00168C26A4B68F3
:104ED00023F400331A434A6090F8281011F0020FAF
:104EE00006D00168026B4B6823F480331A434A6092
:104EF00090F8281011F0040F06D00168426B4B683F
:104F000023F480231A434A6090F8281011F0100F00
:104F100006D00168C26B8B6823F480531A438A6001
:104F200090F8281011F0200F06D00168026C8B68F1
:104F300023F400531A438A6090F8281011F0400FB0
:104F400011D00168426C4B6823F480131A434A6005
:104F5000416CB1F5801F06D10168826C4B6823F467
:104F6000C0031A434A6090F8281011F0800F08BF60
:104F700070470168C06C4A6822F400221043486000
:104F800070472DE9F84300250446C0F89050FBF720
:104F9000F5FF8046206820266FF07E47006810F0FD
:104FA000080F17D00022434631042046009700F036
:104FB00059FA78B1216851E8000F20F0800041E8EB
:104FC0000002002AF6D1C4F88860032084F88450D7
:104FD000BDE8F8832068006810F0040F23D0002299
:104FE00043464FF480012046009700F03BFAD0B1D1
:104FF000206850E8001F21F4907140E80012002A58
:10500000F6D1206800F1080151E8000F20F00100FE
:1050100041E80002002AF4D1C4F88C60032084F82F
:105020008450BDE8F883C4F88860C4F88C60E566F5
:105030002567002084F88450BDE8F8832DE9F0410D
:10504000D0F808C00446C66986B00068D4E90451A7
:10505000FC4AFD4B4CEA050C0768002531433A40F9
:105060004CEA0101114301602068E168426822F4C2
:105070004052114341602268A1699A421CBF206AD4
:1050800001439668F14826F4306626F06E463143B7
:1050900091602168626ACE6A26F00F063243CA62C6
:1050A0002268A2F1804CBCF5883C39D0A2F1804145
:1050B000B1F5884146D0A2F18041B1F590414BD085
:1050C000A2F18041B1F5984150D0A2F18041B1F5F3
:1050D000A04155D0A2F18041B1F58A315AD0A2F158
:1050E0008041B1F5F04166D0A2F18041B1F5F841BF
:1050F0006BD0A2F18041B1F58C3174D0A2F1804126
:10510000B1F58E316ED09A424FD1001D006800F08B
:105110000700062849D2DFE800F0A3A5A7A9ABAD98
:10512000006800F0380018286FD006DC00286BD02B
:1051300008286BD010286AD07CE0202868D0282866
:1051400067D077E0006800F00700062872D2DFE839
:1051500000F046898B8D8F91006800F007000628CB
:1051600068D2DFE800F03C7F81838587006800F02B
:10517000070006285ED2DFE800F0327577797B7D84
:10518000006800F00700062854D2DFE800F0286B22
:105190006D6F7173006800F03800182866D005DC68
:1051A00090B308285ED010285ED043E020285FD05E
:1051B00028285FD03EE0006800F00700062839D2BA
:1051C000DFE800F00D5052545658006800F0070018
:1051D00006282FD2DFE800F00346484A4C4E002153
:1051E00029E000E016E0006800F0380018283DD003
:1051F00005DC48B1082835D0102835D01AE0202821
:1052000036D0282836D015E028E02FE02AE02BE021
:105210002EE02FE0006800F03800182826D005DCCA
:10522000E0B108281ED010281ED003E020281FD08F
:1052300028281FD080218648864F9A42864B4FF0FF
:1052400000064FEA201261D110292CD014DC02296B
:105250001CD004291DD0082920D0F2E00121EAE762
:105260000221E8E70421E6E70821E4E71021E2E76C
:105270002021E0E74021DEE7202908BF10461BD0AF
:10528000402908BF4FF4004016D0DAE0FBF7D8FF02
:1052900011E06846FBF7E6FF01980CE003A8FCF775
:1052A000B7F8049807E0196811F0200F04D01968C6
:1052B000C1F3C101C840C8B3616AD4F8048037F8AB
:1052C000112008EB4803B0FBF2F18B4298BFB1EB21
:1052D000083F40D800231946FBF7EFF802464FEA93
:1052E000012C11024FEA580008184CEA126242EBF6
:1052F000060142460023FBF7E0F85849A0F540724A
:10530000914224BF2168C86058D29AE0D4F81CC0EA
:105310004FF6EF78BCF5004F09D0082971D058DC62
:10532000E9B3012964D0042965D08AE046E0082960
:105330001DD005DC81B1012911D0042912D080E0F3
:10534000102919D0202908BF10461ED0402908BFB7
:105350004FF4004019D074E0FDF700F814E0FDF7B9
:105360002BF811E06846FBF77DFF01980CE003A8DD
:10537000FCF74EF8049807E0196811F0200F04D0EC
:105380001968C1F3C101C840C0B1626A616837F8E9
:105390001220B0FBF2F0400000EB510000E024E0EE
:1053A000B0FBF1F0A0F1100141454AD84FF6F0737F
:1053B0002168C0F3420218401043C8600120A4F8DD
:1053C0006A00A4F8680028466667A66706B0BDE8CC
:1053D000F08110291AD0202908BF104620D040297A
:1053E00008BF4FF400401BD02BE0FCF7B7FF15E0DF
:1053F000FCF7E2FF12E06846FBF734FF01980DE08E
:10540000FFE703A8FCF704F8049807E0196811F017
:10541000200F05D01968C1F3C101C8400028CDD0C4
:10542000626A616837F81220B0FBF2F000EB5100BD
:10543000B0FBF1F0A0F1100141459CBF216880B2A2
:10544000BBD90DE0F369FFCF000C0058544402585B
:105450000090D003BAF9020800440258FFFC0F0084
:105460000125ABE72DE9F047044600689A46174648
:10547000089E0D46C06931EA00000CBF01200020E3
:10548000B84204BF4FF000094FF020087DD100BFA3
:10549000B6F1FF3F7AD0FBF771FDA0EB0A00B042F6
:1054A00029D846B32068016811F0040F1CBF802D75
:1054B000402D73D0C16911F0080F35D04FF00802AC
:1054C0000262216851E8000F20F4907041E8000367
:1054D000002BF6D1206800F1080151E8000F20F000
:1054E000010020F0805041E80003002BF2D1E06E73
:1054F00001280CD102E00320BDE8F087216851E8C3
:10550000000F20F0100041E80003002BF6D1C4F892
:105510008C80C4F86C90C4F8749084F88490C4F8BB
:1055200090200120BDE8F087C06910F4006F35D0ED
:1055300021684FF400600862216851E8000F20F4F0
:10554000907041E80002002AF6D1206800F10801BD
:1055500051E8000F20F0010020F0805041E80002E7
:10556000002AF2D1E06E012808D1216851E8000F2D
:1055700020F0100041E80002002AF6D1C4F88C8027
:10558000C4F86C90C4F8749001E011E006E0C4F82F
:105590009080032084F88490BDE8F0872068C0697B
:1055A00035EA00000CBF01200020B8423FF470AF84
:1055B0000020BDE8F087FEE730380A2801D201203C
:1055C00070470020704700000D48402110B501F0E1
:1055D000DFFA0C4800220A2122F056FD0A4C012174
:1055E000A0600748217001F0B4FA0028A06804D038
:1055F00022F036FE0020207010BD22F025FEF9E7D3
:10560000A4110024597E0008B800002430B4B1F978
:1056100000C0B2F900309C45C8BF63460380B1F9B1
:105620000240B2F902C06445C8BFA446A0F802C057
:10563000B1F90450B2F90440A542B8BF2C468480A9
:10564000B1F90610B2F906209142A8BF1146A34253
:10565000C1804FF0010003DC6145A4BF30BC70473E
:10566000002030BC7047F8B50D46B1F90010044673
:10567000B0F90000164688424BDBB4F90210B5F9C8
:105680000220914245DBB4F90410B5F904208A42A6
:105690003FDBB4F90610B5F906208A4239DBB6B310
:1056A000ADF80000324660886946ADF80200284631
:1056B00000F09DF8002808BFF8BDA0883246ADF87C
:1056C000000069466088ADF80200284600F08FF8B7
:1056D000002808BFF8BD20883246ADF800006946B2
:1056E000E088ADF80200284600F081F8002808BFE5
:1056F000F8BDA0883246ADF800006946E088ADF8F4
:105700000200284600F073F8002808BFF8BD012009
:10571000F8BD0020F8BDB0F90020B1F904309A427C
:1057200013DCB0F90420B1F9003093420DDCB0F97C
:105730000220B1F906309A4207DCB0F90600B1F94F
:1057400002108842A4BF0120704700207047F8B5BE
:105750000D46B1F900100446B0F90400164688421F
:1057600043DBB4F90600B5F9021088423DDBB4F919
:105770000000B5F90410814237DBB4F90210B5F925
:1057800006208A4231DB76B3ADF8000032466088ED
:105790006946ADF80200284600F029F818BBA08839
:1057A0003246ADF8000069466088ADF80200284630
:1057B00000F01DF8B8B920883246ADF800006946FF
:1057C000E088ADF80200284600F011F858B9A0882A
:1057D0003246ADF800006946E088ADF80200284680
:1057E00000F005F808B10020F8BD0120F8BD2DE952
:1057F000F0410546B1F900000E46144682B0B5F9F5
:1058000000108842A4BFB5F904C084455ADBB6F93C
:105810000200B5F902309842A4BFB5F906208242D1
:1058200050DB002C40F3EA80D21AACEB0100401CA4
:10583000521C00B212B200EBD07002EBD2724010D8
:1058400052108242D8BF1046844200F3DB80ADF88C
:1058500000100022288831462044ADF804006888F2
:10586000ADF8020068882044ADF806006846FFF7EE
:10587000BEFF4FF000074FF0010838B3BDF8040039
:10588000BDF80220204400B2ADF80400BDF80610B7
:105890002144ADF80610BDF90010B6F800C0401A5A
:1058A000738800EBD07040100144ACEB010110FB99
:1058B00000FC0244981A11FB01F110FB0010604536
:1058C0007DD997E002B00020BDE8F081E888002291
:1058D0003146001BADF80200E888ADF806006846C6
:1058E000FFF785FF08B3BDF80210BDF80400091BDF
:1058F000ADF80210BDF90020204400B2ADF804005C
:10590000801A3488B6F802C000EBD070401013182B
:105910000A18E11A10FB00F311FB01F1ACEB0200D5
:1059200010FB0010984261D964E0A888002231463B
:10593000001BADF80000A888ADF804006846FFF72A
:1059400056FF08B3BDF80000001B02B2ADF80020FE
:10595000BDF80200011BBDF90400ADF80210801A69
:10596000B6F800C0738800EBD07040100244ACEB76
:10597000020210FB00FC0144581A12FB02F110FB5A
:105980000010604532D935E068880022ADF8020089
:10599000314668882044ADF806006846FFF727FFC7
:1059A00060B3BDF80000001B01B2BDF80600ADF801
:1059B00000102044ADF80600BDF9040000E015E039
:1059C000401AB6F800C0BDF8022000EBD070738812
:1059D00040100144ACEB010110FB00FC0244981A9A
:1059E00011FB01F110FB0010604503D802B04046E6
:1059F000BDE8F08102B03846BDE8F08102B0012078
:105A0000BDE8F081044622E7B1F900C0B2F90030E8
:105A10009C45B8BF63460380B1F902C0B2F90230B9
:105A20009C45B8BF63464380B1F904C0B2F9043065
:105A30009C45C8BF63468380B1F90610B2F90620C1
:105A40009142D8BF1146C180704700002DE9F04F48
:105A500091B004464FF0000ACDF80CA022F0C0FA35
:105A6000DFF85C96002C0D9014BFE0680EF040F952
:105A7000C9F8040000691EF097FAD9F804004069DB
:105A8000002818BF1EF090FAD9F80400C0691EF073
:105A90008BFAD9F80400006A1EF086FAD9F80400DF
:105AA0000169002902BFA0F850A111B0BDE8F08F34
:105AB000B0F850014FF00005002888BF4FF00108F2
:105AC00062D900BFD9F80400411991F830110029BA
:105AD00053D1B0F85001002400284ED9D9F8040061
